{
  "address": "0xf5c6dfe4784D3144b31077272023419dc8d8E6b4",
  "abi": [
    {
      "inputs": [
        {
          "internalType": "uint256",
          "name": "preOpGas",
          "type": "uint256"
        },
        {
          "internalType": "uint256",
          "name": "paid",
          "type": "uint256"
        },
        {
          "internalType": "uint48",
          "name": "validAfter",
          "type": "uint48"
        },
        {
          "internalType": "uint48",
          "name": "validUntil",
          "type": "uint48"
        },
        {
          "internalType": "bool",
          "name": "targetSuccess",
          "type": "bool"
        },
        {
          "internalType": "bytes",
          "name": "targetResult",
          "type": "bytes"
        }
      ],
      "name": "ExecutionResult",
      "type": "error"
    },
    {
      "inputs": [
        {
          "internalType": "uint256",
          "name": "opIndex",
          "type": "uint256"
        },
        {
          "internalType": "string",
          "name": "reason",
          "type": "string"
        }
      ],
      "name": "FailedOp",
      "type": "error"
    },
    {
      "inputs": [
        {
          "internalType": "address",
          "name": "sender",
          "type": "address"
        }
      ],
      "name": "SenderAddressResult",
      "type": "error"
    },
    {
      "inputs": [
        {
          "internalType": "address",
          "name": "aggregator",
          "type": "address"
        }
      ],
      "name": "SignatureValidationFailed",
      "type": "error"
    },
    {
      "inputs": [
        {
          "components": [
            {
              "internalType": "uint256",
              "name": "preOpGas",
              "type": "uint256"
            },
            {
              "internalType": "uint256",
              "name": "prefund",
              "type": "uint256"
            },
            {
              "internalType": "bool",
              "name": "sigFailed",
              "type": "bool"
            },
            {
              "internalType": "uint48",
              "name": "validAfter",
              "type": "uint48"
            },
            {
              "internalType": "uint48",
              "name": "validUntil",
              "type": "uint48"
            },
            {
              "internalType": "bytes",
              "name": "paymasterContext",
              "type": "bytes"
            }
          ],
          "internalType": "struct IEntryPoint.ReturnInfo",
          "name": "returnInfo",
          "type": "tuple"
        },
        {
          "components": [
            {
              "internalType": "uint256",
              "name": "stake",
              "type": "uint256"
            },
            {
              "internalType": "uint256",
              "name": "unstakeDelaySec",
              "type": "uint256"
            }
          ],
          "internalType": "struct IStakeManager.StakeInfo",
          "name": "senderInfo",
          "type": "tuple"
        },
        {
          "components": [
            {
              "internalType": "uint256",
              "name": "stake",
              "type": "uint256"
            },
            {
              "internalType": "uint256",
              "name": "unstakeDelaySec",
              "type": "uint256"
            }
          ],
          "internalType": "struct IStakeManager.StakeInfo",
          "name": "factoryInfo",
          "type": "tuple"
        },
        {
          "components": [
            {
              "internalType": "uint256",
              "name": "stake",
              "type": "uint256"
            },
            {
              "internalType": "uint256",
              "name": "unstakeDelaySec",
              "type": "uint256"
            }
          ],
          "internalType": "struct IStakeManager.StakeInfo",
          "name": "paymasterInfo",
          "type": "tuple"
        }
      ],
      "name": "ValidationResult",
      "type": "error"
    },
    {
      "inputs": [
        {
          "components": [
            {
              "internalType": "uint256",
              "name": "preOpGas",
              "type": "uint256"
            },
            {
              "internalType": "uint256",
              "name": "prefund",
              "type": "uint256"
            },
            {
              "internalType": "bool",
              "name": "sigFailed",
              "type": "bool"
            },
            {
              "internalType": "uint48",
              "name": "validAfter",
              "type": "uint48"
            },
            {
              "internalType": "uint48",
              "name": "validUntil",
              "type": "uint48"
            },
            {
              "internalType": "bytes",
              "name": "paymasterContext",
              "type": "bytes"
            }
          ],
          "internalType": "struct IEntryPoint.ReturnInfo",
          "name": "returnInfo",
          "type": "tuple"
        },
        {
          "components": [
            {
              "internalType": "uint256",
              "name": "stake",
              "type": "uint256"
            },
            {
              "internalType": "uint256",
              "name": "unstakeDelaySec",
              "type": "uint256"
            }
          ],
          "internalType": "struct IStakeManager.StakeInfo",
          "name": "senderInfo",
          "type": "tuple"
        },
        {
          "components": [
            {
              "internalType": "uint256",
              "name": "stake",
              "type": "uint256"
            },
            {
              "internalType": "uint256",
              "name": "unstakeDelaySec",
              "type": "uint256"
            }
          ],
          "internalType": "struct IStakeManager.StakeInfo",
          "name": "factoryInfo",
          "type": "tuple"
        },
        {
          "components": [
            {
              "internalType": "uint256",
              "name": "stake",
              "type": "uint256"
            },
            {
              "internalType": "uint256",
              "name": "unstakeDelaySec",
              "type": "uint256"
            }
          ],
          "internalType": "struct IStakeManager.StakeInfo",
          "name": "paymasterInfo",
          "type": "tuple"
        },
        {
          "components": [
            {
              "internalType": "address",
              "name": "aggregator",
              "type": "address"
            },
            {
              "components": [
                {
                  "internalType": "uint256",
                  "name": "stake",
                  "type": "uint256"
                },
                {
                  "internalType": "uint256",
                  "name": "unstakeDelaySec",
                  "type": "uint256"
                }
              ],
              "internalType": "struct IStakeManager.StakeInfo",
              "name": "stakeInfo",
              "type": "tuple"
            }
          ],
          "internalType": "struct IEntryPoint.AggregatorStakeInfo",
          "name": "aggregatorInfo",
          "type": "tuple"
        }
      ],
      "name": "ValidationResultWithAggregation",
      "type": "error"
    },
    {
      "anonymous": false,
      "inputs": [
        {
          "indexed": true,
          "internalType": "bytes32",
          "name": "userOpHash",
          "type": "bytes32"
        },
        {
          "indexed": true,
          "internalType": "address",
          "name": "sender",
          "type": "address"
        },
        {
          "indexed": false,
          "internalType": "address",
          "name": "factory",
          "type": "address"
        },
        {
          "indexed": false,
          "internalType": "address",
          "name": "paymaster",
          "type": "address"
        }
      ],
      "name": "AccountDeployed",
      "type": "event"
    },
    {
      "anonymous": false,
      "inputs": [
        {
          "indexed": true,
          "internalType": "address",
          "name": "account",
          "type": "address"
        },
        {
          "indexed": false,
          "internalType": "uint256",
          "name": "totalDeposit",
          "type": "uint256"
        }
      ],
      "name": "Deposited",
      "type": "event"
    },
    {
      "anonymous": false,
      "inputs": [
        {
          "indexed": true,
          "internalType": "address",
          "name": "aggregator",
          "type": "address"
        }
      ],
      "name": "SignatureAggregatorChanged",
      "type": "event"
    },
    {
      "anonymous": false,
      "inputs": [
        {
          "indexed": true,
          "internalType": "address",
          "name": "account",
          "type": "address"
        },
        {
          "indexed": false,
          "internalType": "uint256",
          "name": "totalStaked",
          "type": "uint256"
        },
        {
          "indexed": false,
          "internalType": "uint256",
          "name": "unstakeDelaySec",
          "type": "uint256"
        }
      ],
      "name": "StakeLocked",
      "type": "event"
    },
    {
      "anonymous": false,
      "inputs": [
        {
          "indexed": true,
          "internalType": "address",
          "name": "account",
          "type": "address"
        },
        {
          "indexed": false,
          "internalType": "uint256",
          "name": "withdrawTime",
          "type": "uint256"
        }
      ],
      "name": "StakeUnlocked",
      "type": "event"
    },
    {
      "anonymous": false,
      "inputs": [
        {
          "indexed": true,
          "internalType": "address",
          "name": "account",
          "type": "address"
        },
        {
          "indexed": false,
          "internalType": "address",
          "name": "withdrawAddress",
          "type": "address"
        },
        {
          "indexed": false,
          "internalType": "uint256",
          "name": "amount",
          "type": "uint256"
        }
      ],
      "name": "StakeWithdrawn",
      "type": "event"
    },
    {
      "anonymous": false,
      "inputs": [
        {
          "indexed": true,
          "internalType": "bytes32",
          "name": "userOpHash",
          "type": "bytes32"
        },
        {
          "indexed": true,
          "internalType": "address",
          "name": "sender",
          "type": "address"
        },
        {
          "indexed": true,
          "internalType": "address",
          "name": "paymaster",
          "type": "address"
        },
        {
          "indexed": false,
          "internalType": "uint256",
          "name": "nonce",
          "type": "uint256"
        },
        {
          "indexed": false,
          "internalType": "bool",
          "name": "success",
          "type": "bool"
        },
        {
          "indexed": false,
          "internalType": "uint256",
          "name": "actualGasCost",
          "type": "uint256"
        },
        {
          "indexed": false,
          "internalType": "uint256",
          "name": "actualGasUsed",
          "type": "uint256"
        }
      ],
      "name": "UserOperationEvent",
      "type": "event"
    },
    {
      "anonymous": false,
      "inputs": [
        {
          "indexed": true,
          "internalType": "bytes32",
          "name": "userOpHash",
          "type": "bytes32"
        },
        {
          "indexed": true,
          "internalType": "address",
          "name": "sender",
          "type": "address"
        },
        {
          "indexed": false,
          "internalType": "uint256",
          "name": "nonce",
          "type": "uint256"
        },
        {
          "indexed": false,
          "internalType": "bytes",
          "name": "revertReason",
          "type": "bytes"
        }
      ],
      "name": "UserOperationRevertReason",
      "type": "event"
    },
    {
      "anonymous": false,
      "inputs": [
        {
          "indexed": true,
          "internalType": "address",
          "name": "account",
          "type": "address"
        },
        {
          "indexed": false,
          "internalType": "address",
          "name": "withdrawAddress",
          "type": "address"
        },
        {
          "indexed": false,
          "internalType": "uint256",
          "name": "amount",
          "type": "uint256"
        }
      ],
      "name": "Withdrawn",
      "type": "event"
    },
    {
      "inputs": [],
      "name": "SIG_VALIDATION_FAILED",
      "outputs": [
        {
          "internalType": "uint256",
          "name": "",
          "type": "uint256"
        }
      ],
      "stateMutability": "view",
      "type": "function"
    },
    {
      "inputs": [
        {
          "internalType": "bytes",
          "name": "initCode",
          "type": "bytes"
        },
        {
          "internalType": "address",
          "name": "sender",
          "type": "address"
        },
        {
          "internalType": "bytes",
          "name": "paymasterAndData",
          "type": "bytes"
        }
      ],
      "name": "_validateSenderAndPaymaster",
      "outputs": [],
      "stateMutability": "view",
      "type": "function"
    },
    {
      "inputs": [
        {
          "internalType": "uint32",
          "name": "unstakeDelaySec",
          "type": "uint32"
        }
      ],
      "name": "addStake",
      "outputs": [],
      "stateMutability": "payable",
      "type": "function"
    },
    {
      "inputs": [
        {
          "internalType": "address",
          "name": "account",
          "type": "address"
        }
      ],
      "name": "balanceOf",
      "outputs": [
        {
          "internalType": "uint256",
          "name": "",
          "type": "uint256"
        }
      ],
      "stateMutability": "view",
      "type": "function"
    },
    {
      "inputs": [
        {
          "internalType": "address",
          "name": "account",
          "type": "address"
        }
      ],
      "name": "depositTo",
      "outputs": [],
      "stateMutability": "payable",
      "type": "function"
    },
    {
      "inputs": [
        {
          "internalType": "address",
          "name": "",
          "type": "address"
        }
      ],
      "name": "deposits",
      "outputs": [
        {
          "internalType": "uint112",
          "name": "deposit",
          "type": "uint112"
        },
        {
          "internalType": "bool",
          "name": "staked",
          "type": "bool"
        },
        {
          "internalType": "uint112",
          "name": "stake",
          "type": "uint112"
        },
        {
          "internalType": "uint32",
          "name": "unstakeDelaySec",
          "type": "uint32"
        },
        {
          "internalType": "uint48",
          "name": "withdrawTime",
          "type": "uint48"
        }
      ],
      "stateMutability": "view",
      "type": "function"
    },
    {
      "inputs": [
        {
          "internalType": "address",
          "name": "account",
          "type": "address"
        }
      ],
      "name": "getDepositInfo",
      "outputs": [
        {
          "components": [
            {
              "internalType": "uint112",
              "name": "deposit",
              "type": "uint112"
            },
            {
              "internalType": "bool",
              "name": "staked",
              "type": "bool"
            },
            {
              "internalType": "uint112",
              "name": "stake",
              "type": "uint112"
            },
            {
              "internalType": "uint32",
              "name": "unstakeDelaySec",
              "type": "uint32"
            },
            {
              "internalType": "uint48",
              "name": "withdrawTime",
              "type": "uint48"
            }
          ],
          "internalType": "struct IStakeManager.DepositInfo",
          "name": "info",
          "type": "tuple"
        }
      ],
      "stateMutability": "view",
      "type": "function"
    },
    {
      "inputs": [
        {
          "internalType": "bytes",
          "name": "initCode",
          "type": "bytes"
        }
      ],
      "name": "getSenderAddress",
      "outputs": [],
      "stateMutability": "nonpayable",
      "type": "function"
    },
    {
      "inputs": [
        {
          "components": [
            {
              "internalType": "address",
              "name": "sender",
              "type": "address"
            },
            {
              "internalType": "uint256",
              "name": "nonce",
              "type": "uint256"
            },
            {
              "internalType": "bytes",
              "name": "initCode",
              "type": "bytes"
            },
            {
              "internalType": "bytes",
              "name": "callData",
              "type": "bytes"
            },
            {
              "internalType": "uint256",
              "name": "callGasLimit",
              "type": "uint256"
            },
            {
              "internalType": "uint256",
              "name": "verificationGasLimit",
              "type": "uint256"
            },
            {
              "internalType": "uint256",
              "name": "preVerificationGas",
              "type": "uint256"
            },
            {
              "internalType": "uint256",
              "name": "maxFeePerGas",
              "type": "uint256"
            },
            {
              "internalType": "uint256",
              "name": "maxPriorityFeePerGas",
              "type": "uint256"
            },
            {
              "internalType": "bytes",
              "name": "paymasterAndData",
              "type": "bytes"
            },
            {
              "internalType": "bytes",
              "name": "signature",
              "type": "bytes"
            }
          ],
          "internalType": "struct UserOperation",
          "name": "userOp",
          "type": "tuple"
        }
      ],
      "name": "getUserOpHash",
      "outputs": [
        {
          "internalType": "bytes32",
          "name": "",
          "type": "bytes32"
        }
      ],
      "stateMutability": "view",
      "type": "function"
    },
    {
      "inputs": [
        {
          "components": [
            {
              "components": [
                {
                  "internalType": "address",
                  "name": "sender",
                  "type": "address"
                },
                {
                  "internalType": "uint256",
                  "name": "nonce",
                  "type": "uint256"
                },
                {
                  "internalType": "bytes",
                  "name": "initCode",
                  "type": "bytes"
                },
                {
                  "internalType": "bytes",
                  "name": "callData",
                  "type": "bytes"
                },
                {
                  "internalType": "uint256",
                  "name": "callGasLimit",
                  "type": "uint256"
                },
                {
                  "internalType": "uint256",
                  "name": "verificationGasLimit",
                  "type": "uint256"
                },
                {
                  "internalType": "uint256",
                  "name": "preVerificationGas",
                  "type": "uint256"
                },
                {
                  "internalType": "uint256",
                  "name": "maxFeePerGas",
                  "type": "uint256"
                },
                {
                  "internalType": "uint256",
                  "name": "maxPriorityFeePerGas",
                  "type": "uint256"
                },
                {
                  "internalType": "bytes",
                  "name": "paymasterAndData",
                  "type": "bytes"
                },
                {
                  "internalType": "bytes",
                  "name": "signature",
                  "type": "bytes"
                }
              ],
              "internalType": "struct UserOperation[]",
              "name": "userOps",
              "type": "tuple[]"
            },
            {
              "internalType": "contract IAggregator",
              "name": "aggregator",
              "type": "address"
            },
            {
              "internalType": "bytes",
              "name": "signature",
              "type": "bytes"
            }
          ],
          "internalType": "struct IEntryPoint.UserOpsPerAggregator[]",
          "name": "opsPerAggregator",
          "type": "tuple[]"
        },
        {
          "internalType": "address payable",
          "name": "beneficiary",
          "type": "address"
        }
      ],
      "name": "handleAggregatedOps",
      "outputs": [],
      "stateMutability": "nonpayable",
      "type": "function"
    },
    {
      "inputs": [
        {
          "components": [
            {
              "internalType": "address",
              "name": "sender",
              "type": "address"
            },
            {
              "internalType": "uint256",
              "name": "nonce",
              "type": "uint256"
            },
            {
              "internalType": "bytes",
              "name": "initCode",
              "type": "bytes"
            },
            {
              "internalType": "bytes",
              "name": "callData",
              "type": "bytes"
            },
            {
              "internalType": "uint256",
              "name": "callGasLimit",
              "type": "uint256"
            },
            {
              "internalType": "uint256",
              "name": "verificationGasLimit",
              "type": "uint256"
            },
            {
              "internalType": "uint256",
              "name": "preVerificationGas",
              "type": "uint256"
            },
            {
              "internalType": "uint256",
              "name": "maxFeePerGas",
              "type": "uint256"
            },
            {
              "internalType": "uint256",
              "name": "maxPriorityFeePerGas",
              "type": "uint256"
            },
            {
              "internalType": "bytes",
              "name": "paymasterAndData",
              "type": "bytes"
            },
            {
              "internalType": "bytes",
              "name": "signature",
              "type": "bytes"
            }
          ],
          "internalType": "struct UserOperation[]",
          "name": "ops",
          "type": "tuple[]"
        },
        {
          "internalType": "address payable",
          "name": "beneficiary",
          "type": "address"
        }
      ],
      "name": "handleOps",
      "outputs": [],
      "stateMutability": "nonpayable",
      "type": "function"
    },
    {
      "inputs": [
        {
          "internalType": "bytes",
          "name": "callData",
          "type": "bytes"
        },
        {
          "components": [
            {
              "components": [
                {
                  "internalType": "address",
                  "name": "sender",
                  "type": "address"
                },
                {
                  "internalType": "uint256",
                  "name": "nonce",
                  "type": "uint256"
                },
                {
                  "internalType": "uint256",
                  "name": "callGasLimit",
                  "type": "uint256"
                },
                {
                  "internalType": "uint256",
                  "name": "verificationGasLimit",
                  "type": "uint256"
                },
                {
                  "internalType": "uint256",
                  "name": "preVerificationGas",
                  "type": "uint256"
                },
                {
                  "internalType": "address",
                  "name": "paymaster",
                  "type": "address"
                },
                {
                  "internalType": "uint256",
                  "name": "maxFeePerGas",
                  "type": "uint256"
                },
                {
                  "internalType": "uint256",
                  "name": "maxPriorityFeePerGas",
                  "type": "uint256"
                }
              ],
              "internalType": "struct EntryPoint.MemoryUserOp",
              "name": "mUserOp",
              "type": "tuple"
            },
            {
              "internalType": "bytes32",
              "name": "userOpHash",
              "type": "bytes32"
            },
            {
              "internalType": "uint256",
              "name": "prefund",
              "type": "uint256"
            },
            {
              "internalType": "uint256",
              "name": "contextOffset",
              "type": "uint256"
            },
            {
              "internalType": "uint256",
              "name": "preOpGas",
              "type": "uint256"
            }
          ],
          "internalType": "struct EntryPoint.UserOpInfo",
          "name": "opInfo",
          "type": "tuple"
        },
        {
          "internalType": "bytes",
          "name": "context",
          "type": "bytes"
        }
      ],
      "name": "innerHandleOp",
      "outputs": [
        {
          "internalType": "uint256",
          "name": "actualGasCost",
          "type": "uint256"
        }
      ],
      "stateMutability": "nonpayable",
      "type": "function"
    },
    {
      "inputs": [
        {
          "components": [
            {
              "internalType": "address",
              "name": "sender",
              "type": "address"
            },
            {
              "internalType": "uint256",
              "name": "nonce",
              "type": "uint256"
            },
            {
              "internalType": "bytes",
              "name": "initCode",
              "type": "bytes"
            },
            {
              "internalType": "bytes",
              "name": "callData",
              "type": "bytes"
            },
            {
              "internalType": "uint256",
              "name": "callGasLimit",
              "type": "uint256"
            },
            {
              "internalType": "uint256",
              "name": "verificationGasLimit",
              "type": "uint256"
            },
            {
              "internalType": "uint256",
              "name": "preVerificationGas",
              "type": "uint256"
            },
            {
              "internalType": "uint256",
              "name": "maxFeePerGas",
              "type": "uint256"
            },
            {
              "internalType": "uint256",
              "name": "maxPriorityFeePerGas",
              "type": "uint256"
            },
            {
              "internalType": "bytes",
              "name": "paymasterAndData",
              "type": "bytes"
            },
            {
              "internalType": "bytes",
              "name": "signature",
              "type": "bytes"
            }
          ],
          "internalType": "struct UserOperation",
          "name": "op",
          "type": "tuple"
        },
        {
          "internalType": "address",
          "name": "target",
          "type": "address"
        },
        {
          "internalType": "bytes",
          "name": "targetCallData",
          "type": "bytes"
        }
      ],
      "name": "simulateHandleOp",
      "outputs": [],
      "stateMutability": "nonpayable",
      "type": "function"
    },
    {
      "inputs": [
        {
          "components": [
            {
              "internalType": "address",
              "name": "sender",
              "type": "address"
            },
            {
              "internalType": "uint256",
              "name": "nonce",
              "type": "uint256"
            },
            {
              "internalType": "bytes",
              "name": "initCode",
              "type": "bytes"
            },
            {
              "internalType": "bytes",
              "name": "callData",
              "type": "bytes"
            },
            {
              "internalType": "uint256",
              "name": "callGasLimit",
              "type": "uint256"
            },
            {
              "internalType": "uint256",
              "name": "verificationGasLimit",
              "type": "uint256"
            },
            {
              "internalType": "uint256",
              "name": "preVerificationGas",
              "type": "uint256"
            },
            {
              "internalType": "uint256",
              "name": "maxFeePerGas",
              "type": "uint256"
            },
            {
              "internalType": "uint256",
              "name": "maxPriorityFeePerGas",
              "type": "uint256"
            },
            {
              "internalType": "bytes",
              "name": "paymasterAndData",
              "type": "bytes"
            },
            {
              "internalType": "bytes",
              "name": "signature",
              "type": "bytes"
            }
          ],
          "internalType": "struct UserOperation",
          "name": "userOp",
          "type": "tuple"
        }
      ],
      "name": "simulateValidation",
      "outputs": [],
      "stateMutability": "nonpayable",
      "type": "function"
    },
    {
      "inputs": [],
      "name": "unlockStake",
      "outputs": [],
      "stateMutability": "nonpayable",
      "type": "function"
    },
    {
      "inputs": [
        {
          "internalType": "address payable",
          "name": "withdrawAddress",
          "type": "address"
        }
      ],
      "name": "withdrawStake",
      "outputs": [],
      "stateMutability": "nonpayable",
      "type": "function"
    },
    {
      "inputs": [
        {
          "internalType": "address payable",
          "name": "withdrawAddress",
          "type": "address"
        },
        {
          "internalType": "uint256",
          "name": "withdrawAmount",
          "type": "uint256"
        }
      ],
      "name": "withdrawTo",
      "outputs": [],
      "stateMutability": "nonpayable",
      "type": "function"
    },
    {
      "stateMutability": "payable",
      "type": "receive"
    }
  ],
  "transactionHash": "0x012f0032d343b17c18e33a8b8f0396a03d7a37fe78161a0c919a93b2da788afc",
  "args": [],
  "numDeployments": 1,
  "solcInputHash": "a6b7b56bfa6ddd5c94091a5c0b8c10ea",
  "bytecode": "0x60a0604052604051620000129062000050565b604051809103906000f0801580156200002f573d6000803e3d6000fd5b506001600160a01b03166080523480156200004957600080fd5b506200005e565b6102338062004b2d83390190565b608051614aac620000816000396000818161146e015261363e0152614aac6000f3fe6080604052600436106101125760003560e01c8063957122ab116100a5578063bb9fe6bf11610074578063d6383f9411610059578063d6383f941461042c578063ee2194231461044c578063fc7e286d1461046c57600080fd5b8063bb9fe6bf146103f7578063c23a5cea1461040c57600080fd5b8063957122ab146103845780639b249f69146103a4578063a6193531146103c4578063b760faf9146103e457600080fd5b80634b1d7cf5116100e15780634b1d7cf5146101ad5780635287ce12146101cd57806370a082311461031c5780638f41ec5a1461036f57600080fd5b80630396cb60146101275780631d7327561461013a5780631fad948c1461016d578063205c28781461018d57600080fd5b366101225761012033610546565b005b600080fd5b6101206101353660046139b1565b6105c1565b34801561014657600080fd5b5061015a610155366004613c28565b610944565b6040519081526020015b60405180910390f35b34801561017957600080fd5b50610120610188366004613d33565b610af7565b34801561019957600080fd5b506101206101a8366004613d8a565b610c38565b3480156101b957600080fd5b506101206101c8366004613d33565b610e3a565b3480156101d957600080fd5b506102bd6101e8366004613db6565b6040805160a0810182526000808252602082018190529181018290526060810182905260808101919091525073ffffffffffffffffffffffffffffffffffffffff1660009081526020818152604091829020825160a08101845281546dffffffffffffffffffffffffffff80821683526e010000000000000000000000000000820460ff161515948301949094526f0100000000000000000000000000000090049092169282019290925260019091015463ffffffff81166060830152640100000000900465ffffffffffff16608082015290565b6040805182516dffffffffffffffffffffffffffff908116825260208085015115159083015283830151169181019190915260608083015163ffffffff169082015260809182015165ffffffffffff169181019190915260a001610164565b34801561032857600080fd5b5061015a610337366004613db6565b73ffffffffffffffffffffffffffffffffffffffff166000908152602081905260409020546dffffffffffffffffffffffffffff1690565b34801561037b57600080fd5b5061015a600181565b34801561039057600080fd5b5061012061039f366004613dd3565b6112d9565b3480156103b057600080fd5b506101206103bf366004613e58565b611431565b3480156103d057600080fd5b5061015a6103df366004613eb3565b611533565b6101206103f2366004613db6565b610546565b34801561040357600080fd5b50610120611575565b34801561041857600080fd5b50610120610427366004613db6565b61172c565b34801561043857600080fd5b50610120610447366004613ee8565b611a2c565b34801561045857600080fd5b50610120610467366004613eb3565b611b5a565b34801561047857600080fd5b506104f9610487366004613db6565b600060208190529081526040902080546001909101546dffffffffffffffffffffffffffff808316926e010000000000000000000000000000810460ff16926f010000000000000000000000000000009091049091169063ffffffff811690640100000000900465ffffffffffff1685565b604080516dffffffffffffffffffffffffffff96871681529415156020860152929094169183019190915263ffffffff16606082015265ffffffffffff909116608082015260a001610164565b6105508134611ec2565b73ffffffffffffffffffffffffffffffffffffffff811660008181526020818152604091829020805492516dffffffffffffffffffffffffffff909316835292917f2da466a7b24304f47e87fa2e1e5a81b9831ce54fec19055ce277ca2f39ba42c491015b60405180910390a25050565b33600090815260208190526040902063ffffffff8216610642576040517f08c379a000000000000000000000000000000000000000000000000000000000815260206004820152601a60248201527f6d757374207370656369667920756e7374616b652064656c617900000000000060448201526064015b60405180910390fd5b600181015463ffffffff90811690831610156106ba576040517f08c379a000000000000000000000000000000000000000000000000000000000815260206004820152601c60248201527f63616e6e6f7420646563726561736520756e7374616b652074696d65000000006044820152606401610639565b80546000906106ed9034906f0100000000000000000000000000000090046dffffffffffffffffffffffffffff16613f79565b905060008111610759576040517f08c379a000000000000000000000000000000000000000000000000000000000815260206004820152601260248201527f6e6f207374616b652073706563696669656400000000000000000000000000006044820152606401610639565b6dffffffffffffffffffffffffffff8111156107d1576040517f08c379a000000000000000000000000000000000000000000000000000000000815260206004820152600e60248201527f7374616b65206f766572666c6f770000000000000000000000000000000000006044820152606401610639565b6040805160a08101825283546dffffffffffffffffffffffffffff90811682526001602080840182815286841685870190815263ffffffff808b16606088019081526000608089018181523380835296829052908a9020985189549551945189166f01000000000000000000000000000000027fffffff0000000000000000000000000000ffffffffffffffffffffffffffffff9515156e010000000000000000000000000000027fffffffffffffffffffffffffffffffffff0000000000000000000000000000009097169190991617949094179290921695909517865551949092018054925165ffffffffffff16640100000000027fffffffffffffffffffffffffffffffffffffffffffff00000000000000000000909316949093169390931717905590517fa5ae833d0bb1dcd632d98a8b70973e8516812898e19bf27b70071ebc8dc52c0190610937908490879091825263ffffffff16602082015260400190565b60405180910390a2505050565b6000805a90503330146109b3576040517f08c379a000000000000000000000000000000000000000000000000000000000815260206004820152601760248201527f4141393220696e7465726e616c2063616c6c206f6e6c790000000000000000006044820152606401610639565b8451604081015160608201518101611388015a10156109f6577fdeaddead0000000000000000000000000000000000000000000000000000000060005260206000fd5b875160009015610a97576000610a13846000015160008c86611fbf565b905080610a95576000610a27610800611fd7565b805190915015610a8f57846000015173ffffffffffffffffffffffffffffffffffffffff168a602001517f1c4fada7374c0a9ee8841fc38afe82932dc0f8e69012e927f061a8bae611a201876020015184604051610a86929190613ffa565b60405180910390a35b60019250505b505b600088608001515a8603019050610ae96000838b8b8b8080601f016020809104026020016040519081016040528093929190818152602001838380828437600092019190915250889250612003915050565b9a9950505050505050505050565b8160008167ffffffffffffffff811115610b1357610b136139d7565b604051908082528060200260200182016040528015610b4c57816020015b610b3961390d565b815260200190600190039081610b315790505b50905060005b82811015610bc5576000828281518110610b6e57610b6e614013565b60200260200101519050600080610ba9848a8a87818110610b9157610b91614013565b9050602002810190610ba39190614042565b856123e1565b91509150610bba84838360006125a3565b505050600101610b52565b506000805b83811015610c2557610c1981888884818110610be857610be8614013565b9050602002810190610bfa9190614042565b858481518110610c0c57610c0c614013565b60200260200101516127f8565b90910190600101610bca565b50610c30848261297d565b505050505050565b33600090815260208190526040902080546dffffffffffffffffffffffffffff16821115610cc2576040517f08c379a000000000000000000000000000000000000000000000000000000000815260206004820152601960248201527f576974686472617720616d6f756e7420746f6f206c61726765000000000000006044820152606401610639565b8054610cdf9083906dffffffffffffffffffffffffffff16614080565b81547fffffffffffffffffffffffffffffffffffff0000000000000000000000000000166dffffffffffffffffffffffffffff919091161781556040805173ffffffffffffffffffffffffffffffffffffffff851681526020810184905233917fd1c19fbcd4551a5edfb66d43d2e337c04837afda3482b42bdf569a8fccdae5fb910160405180910390a260008373ffffffffffffffffffffffffffffffffffffffff168360405160006040518083038185875af1925050503d8060008114610dc4576040519150601f19603f3d011682016040523d82523d6000602084013e610dc9565b606091505b5050905080610e34576040517f08c379a000000000000000000000000000000000000000000000000000000000815260206004820152601260248201527f6661696c656420746f20776974686472617700000000000000000000000000006044820152606401610639565b50505050565b816000805b828110156110335736868683818110610e5a57610e5a614013565b9050602002810190610e6c9190614093565b9050366000610e7b83806140c7565b90925090506000610e926040850160208601613db6565b90507fffffffffffffffffffffffffffffffffffffffffffffffffffffffffffffffff73ffffffffffffffffffffffffffffffffffffffff821601610f33576040517f08c379a000000000000000000000000000000000000000000000000000000000815260206004820152601760248201527f4141393620696e76616c69642061676772656761746f720000000000000000006044820152606401610639565b73ffffffffffffffffffffffffffffffffffffffff8116156110105773ffffffffffffffffffffffffffffffffffffffff811663e3563a4f8484610f7a604089018961412f565b6040518563ffffffff1660e01b8152600401610f999493929190614345565b60006040518083038186803b158015610fb157600080fd5b505afa925050508015610fc2575060015b611010576040517f86a9f75000000000000000000000000000000000000000000000000000000000815273ffffffffffffffffffffffffffffffffffffffff82166004820152602401610639565b61101a8287613f79565b955050505050808061102b906143fc565b915050610e3f565b5060008167ffffffffffffffff81111561104f5761104f6139d7565b60405190808252806020026020018201604052801561108857816020015b61107561390d565b81526020019060019003908161106d5790505b5090506000805b8481101561117357368888838181106110aa576110aa614013565b90506020028101906110bc9190614093565b90503660006110cb83806140c7565b909250905060006110e26040850160208601613db6565b90508160005b8181101561115a57600089898151811061110457611104614013565b602002602001015190506000806111278b898987818110610b9157610b91614013565b91509150611137848383896125a3565b8a611141816143fc565b9b50505050508080611152906143fc565b9150506110e8565b505050505050808061116b906143fc565b91505061108f565b50600080915060005b85811015611299573689898381811061119757611197614013565b90506020028101906111a99190614093565b90506111bb6040820160208301613db6565b73ffffffffffffffffffffffffffffffffffffffff167f575ff3acadd5ab348fe1855e217e0f3678f8d767d7494c9f9fefbee2e17cca4d60405160405180910390a236600061120a83806140c7565b90925090508060005b81811015611281576112558885858481811061123157611231614013565b90506020028101906112439190614042565b8b8b81518110610c0c57610c0c614013565b61125f9088613f79565b96508761126b816143fc565b9850508080611279906143fc565b915050611213565b50505050508080611291906143fc565b91505061117c565b506040516000907f575ff3acadd5ab348fe1855e217e0f3678f8d767d7494c9f9fefbee2e17cca4d908290a26112cf868261297d565b5050505050505050565b831580156112fc575073ffffffffffffffffffffffffffffffffffffffff83163b155b15611363576040517f08c379a000000000000000000000000000000000000000000000000000000000815260206004820152601960248201527f41413230206163636f756e74206e6f74206465706c6f796564000000000000006044820152606401610639565b601481106113f557600061137a6014828486614434565b6113839161445e565b60601c9050803b6000036113f3576040517f08c379a000000000000000000000000000000000000000000000000000000000815260206004820152601b60248201527f41413330207061796d6173746572206e6f74206465706c6f79656400000000006044820152606401610639565b505b6040517f08c379a00000000000000000000000000000000000000000000000000000000081526020600482015260006024820152604401610639565b6040517f570e1a3600000000000000000000000000000000000000000000000000000000815273ffffffffffffffffffffffffffffffffffffffff7f0000000000000000000000000000000000000000000000000000000000000000169063570e1a36906114a590859085906004016144a6565b6020604051808303816000875af11580156114c4573d6000803e3d6000fd5b505050506040513d601f19601f820116820180604052508101906114e891906144ba565b6040517f6ca7b80600000000000000000000000000000000000000000000000000000000815273ffffffffffffffffffffffffffffffffffffffff9091166004820152602401610639565b600061153e82612ac9565b6040805160208101929092523090820152466060820152608001604051602081830303815290604052805190602001209050919050565b3360009081526020819052604081206001810154909163ffffffff90911690036115fb576040517f08c379a000000000000000000000000000000000000000000000000000000000815260206004820152600a60248201527f6e6f74207374616b6564000000000000000000000000000000000000000000006044820152606401610639565b80546e010000000000000000000000000000900460ff16611678576040517f08c379a000000000000000000000000000000000000000000000000000000000815260206004820152601160248201527f616c726561647920756e7374616b696e670000000000000000000000000000006044820152606401610639565b60018101546000906116909063ffffffff16426144d7565b6001830180547fffffffffffffffffffffffffffffffffffffffffffff000000000000ffffffff1664010000000065ffffffffffff84169081029190911790915583547fffffffffffffffffffffffffffffffffff00ffffffffffffffffffffffffffff16845560405190815290915033907ffa9b3c14cc825c412c9ed81b3ba365a5b459439403f18829e572ed53a4180f0a906020016105b5565b33600090815260208190526040902080546f0100000000000000000000000000000090046dffffffffffffffffffffffffffff16806117c7576040517f08c379a000000000000000000000000000000000000000000000000000000000815260206004820152601460248201527f4e6f207374616b6520746f2077697468647261770000000000000000000000006044820152606401610639565b6001820154640100000000900465ffffffffffff16611842576040517f08c379a000000000000000000000000000000000000000000000000000000000815260206004820152601d60248201527f6d7573742063616c6c20756e6c6f636b5374616b6528292066697273740000006044820152606401610639565b60018201544264010000000090910465ffffffffffff1611156118c1576040517f08c379a000000000000000000000000000000000000000000000000000000000815260206004820152601b60248201527f5374616b65207769746864726177616c206973206e6f742064756500000000006044820152606401610639565b6001820180547fffffffffffffffffffffffffffffffffffffffffffff0000000000000000000016905581547fffffff0000000000000000000000000000ffffffffffffffffffffffffffffff1682556040805173ffffffffffffffffffffffffffffffffffffffff851681526020810183905233917fb7c918e0e249f999e965cafeb6c664271b3f4317d296461500e71da39f0cbda3910160405180910390a260008373ffffffffffffffffffffffffffffffffffffffff168260405160006040518083038185875af1925050503d80600081146119bc576040519150601f19603f3d011682016040523d82523d6000602084013e6119c1565b606091505b5050905080610e34576040517f08c379a000000000000000000000000000000000000000000000000000000000815260206004820152601860248201527f6661696c656420746f207769746864726177207374616b6500000000000000006044820152606401610639565b611a3461390d565b611a3d85612ae2565b600080611a4c600088856123e1565b915091506000611a5c8383612bd5565b9050611a6743600052565b6000611a7560008a876127f8565b9050611a8043600052565b6000606073ffffffffffffffffffffffffffffffffffffffff8a1615611b10578973ffffffffffffffffffffffffffffffffffffffff168989604051611ac79291906144fd565b6000604051808303816000865af19150503d8060008114611b04576040519150601f19603f3d011682016040523d82523d6000602084013e611b09565b606091505b5090925090505b8660800151838560200151866040015185856040517f8b7ac9800000000000000000000000000000000000000000000000000000000081526004016106399695949392919061450d565b611b6261390d565b611b6b82612ae2565b600080611b7a600085856123e1565b845160a001516040805180820182526000808252602080830182815273ffffffffffffffffffffffffffffffffffffffff958616835282825284832080546dffffffffffffffffffffffffffff6f01000000000000000000000000000000918290048116875260019283015463ffffffff9081169094528d51518851808a018a5287815280870188815291909a16875286865288872080549390930490911689529101549091169052835180850190945281845283015293955091935090366000611c4860408a018a61412f565b909250905060006014821015611c5f576000611c7a565b611c6d601460008486614434565b611c769161445e565b60601c5b6040805180820182526000808252602080830182815273ffffffffffffffffffffffffffffffffffffffff861683529082905292902080546f0100000000000000000000000000000090046dffffffffffffffffffffffffffff1682526001015463ffffffff1690915290915093505050506000611cf88686612bd5565b90506000816000015190506000600173ffffffffffffffffffffffffffffffffffffffff168273ffffffffffffffffffffffffffffffffffffffff1614905060006040518060c001604052808b6080015181526020018b6040015181526020018315158152602001856020015165ffffffffffff168152602001856040015165ffffffffffff168152602001611d8f8c6060015190565b9052905073ffffffffffffffffffffffffffffffffffffffff831615801590611dcf575073ffffffffffffffffffffffffffffffffffffffff8316600114155b15611e885760408051808201825273ffffffffffffffffffffffffffffffffffffffff851680825282518084018452600080825260208083018281529382528181529085902080546f0100000000000000000000000000000090046dffffffffffffffffffffffffffff1683526001015463ffffffff169092529082015290517ffaecb4e4000000000000000000000000000000000000000000000000000000008152610639908390899089908c9086906004016145af565b808686896040517fe0cff05f000000000000000000000000000000000000000000000000000000008152600401610639949392919061463c565b73ffffffffffffffffffffffffffffffffffffffff821660009081526020819052604081208054909190611f079084906dffffffffffffffffffffffffffff16613f79565b90506dffffffffffffffffffffffffffff811115611f81576040517f08c379a000000000000000000000000000000000000000000000000000000000815260206004820152601060248201527f6465706f736974206f766572666c6f77000000000000000000000000000000006044820152606401610639565b81547fffffffffffffffffffffffffffffffffffff0000000000000000000000000000166dffffffffffffffffffffffffffff919091161790555050565b6000806000845160208601878987f195945050505050565b60603d82811115611fe55750815b604051602082018101604052818152816000602083013e9392505050565b6000805a85519091506000908161201982612cbc565b60a083015190915073ffffffffffffffffffffffffffffffffffffffff81166120455782519350612293565b80935060008851111561229357868202955060028a600281111561206b5761206b614693565b146121035760608301516040517fa9a2340900000000000000000000000000000000000000000000000000000000815273ffffffffffffffffffffffffffffffffffffffff83169163a9a23409916120cb908e908d908c906004016146c2565b600060405180830381600088803b1580156120e557600080fd5b5087f11580156120f9573d6000803e3d6000fd5b5050505050612293565b60608301516040517fa9a2340900000000000000000000000000000000000000000000000000000000815273ffffffffffffffffffffffffffffffffffffffff83169163a9a234099161215e908e908d908c906004016146c2565b600060405180830381600088803b15801561217857600080fd5b5087f19350505050801561218a575060015b61229357612196614722565b806308c379a00361222657506121aa61473e565b806121b55750612228565b8b816040516020016121c791906147e6565b604080517fffffffffffffffffffffffffffffffffffffffffffffffffffffffffffffffe0818403018152908290527f220266b60000000000000000000000000000000000000000000000000000000082526106399291600401613ffa565b505b8a6040517f220266b60000000000000000000000000000000000000000000000000000000081526004016106399181526040602082018190526012908201527f4141353020706f73744f70207265766572740000000000000000000000000000606082015260800190565b5a85038701965081870295508589604001511015612315578a6040517f220266b600000000000000000000000000000000000000000000000000000000815260040161063991815260406020808301829052908201527f414135312070726566756e642062656c6f772061637475616c476173436f7374606082015260800190565b60408901518690036123278582611ec2565b6000808c600281111561233c5761233c614693565b1490508460a0015173ffffffffffffffffffffffffffffffffffffffff16856000015173ffffffffffffffffffffffffffffffffffffffff168c602001517f49628fd1471006c1482da88028e9ce4dbb080b815c9b0344d39e5a8e6ec1419f8860200151858d8f6040516123c9949392919093845291151560208401526040830152606082015260800190565b60405180910390a45050505050505095945050505050565b60008060005a84519091506123f68682612cec565b6123ff86611533565b6020860152604081015160608201516080830151171760e087013517610100870135176effffffffffffffffffffffffffffff81111561249b576040517f08c379a000000000000000000000000000000000000000000000000000000000815260206004820152601860248201527f41413934206761732076616c756573206f766572666c6f7700000000000000006044820152606401610639565b6000806124a784612e0c565b90506124b58a8a8a84612e66565b975091506124c243600052565b60a084015160609073ffffffffffffffffffffffffffffffffffffffff16156124f7576124f28b8b8b858761317c565b975090505b60005a87039050808b60a001351015612575578b6040517f220266b6000000000000000000000000000000000000000000000000000000008152600401610639918152604060208201819052601e908201527f41413430206f76657220766572696669636174696f6e4761734c696d69740000606082015260800190565b60408a018390528160608b015260c08b01355a8803018a608001818152505050505050505050935093915050565b6000806125af8561343f565b915091508173ffffffffffffffffffffffffffffffffffffffff168373ffffffffffffffffffffffffffffffffffffffff161461265157856040517f220266b60000000000000000000000000000000000000000000000000000000081526004016106399181526040602082018190526014908201527f41413234207369676e6174757265206572726f72000000000000000000000000606082015260800190565b80156126c257856040517f220266b60000000000000000000000000000000000000000000000000000000081526004016106399181526040602082018190526017908201527f414132322065787069726564206f72206e6f7420647565000000000000000000606082015260800190565b60006126cd8561343f565b9250905073ffffffffffffffffffffffffffffffffffffffff81161561275857866040517f220266b60000000000000000000000000000000000000000000000000000000081526004016106399181526040602082018190526014908201527f41413334207369676e6174757265206572726f72000000000000000000000000606082015260800190565b81156127ef57866040517f220266b60000000000000000000000000000000000000000000000000000000081526004016106399181526040602082018190526021908201527f41413332207061796d61737465722065787069726564206f72206e6f7420647560608201527f6500000000000000000000000000000000000000000000000000000000000000608082015260a00190565b50505050505050565b6000805a9050600061280b846060015190565b905030631d732756612820606088018861412f565b87856040518563ffffffff1660e01b8152600401612841949392919061482b565b6020604051808303816000875af192505050801561289a575060408051601f3d9081017fffffffffffffffffffffffffffffffffffffffffffffffffffffffffffffffe0168201909252612897918101906148ec565b60015b61297157600060206000803e506000517f2152215300000000000000000000000000000000000000000000000000000000810161293c57866040517f220266b6000000000000000000000000000000000000000000000000000000008152600401610639918152604060208201819052600f908201527f41413935206f7574206f66206761730000000000000000000000000000000000606082015260800190565b600085608001515a61294e9086614080565b6129589190613f79565b9050612968886002888685612003565b94505050612974565b92505b50509392505050565b73ffffffffffffffffffffffffffffffffffffffff82166129fa576040517f08c379a000000000000000000000000000000000000000000000000000000000815260206004820152601860248201527f4141393020696e76616c69642062656e656669636961727900000000000000006044820152606401610639565b60008273ffffffffffffffffffffffffffffffffffffffff168260405160006040518083038185875af1925050503d8060008114612a54576040519150601f19603f3d011682016040523d82523d6000602084013e612a59565b606091505b5050905080612ac4576040517f08c379a000000000000000000000000000000000000000000000000000000000815260206004820152601f60248201527f41413931206661696c65642073656e6420746f2062656e6566696369617279006044820152606401610639565b505050565b6000612ad482613492565b805190602001209050919050565b3063957122ab612af5604084018461412f565b612b026020860186613db6565b612b1061012087018761412f565b6040518663ffffffff1660e01b8152600401612b30959493929190614905565b60006040518083038186803b158015612b4857600080fd5b505afa925050508015612b59575060015b612bd257612b65614722565b806308c379a003612bc65750612b7961473e565b80612b845750612bc8565b805115612bc2576000816040517f220266b6000000000000000000000000000000000000000000000000000000008152600401610639929190613ffa565b5050565b505b3d6000803e3d6000fd5b50565b6040805160608101825260008082526020820181905291810182905290612bfb846134d1565b90506000612c08846134d1565b825190915073ffffffffffffffffffffffffffffffffffffffff8116612c2c575080515b602080840151604080860151928501519085015191929165ffffffffffff8083169085161015612c5a578193505b8065ffffffffffff168365ffffffffffff161115612c76578092505b50506040805160608101825273ffffffffffffffffffffffffffffffffffffffff909416845265ffffffffffff9283166020850152911690820152925050505b92915050565b60c081015160e082015160009190808203612cd8575092915050565b612ce48248830161354f565b949350505050565b612cf96020830183613db6565b73ffffffffffffffffffffffffffffffffffffffff16815260208083013590820152608080830135604083015260a0830135606083015260c0808401359183019190915260e0808401359183019190915261010083013590820152366000612d6561012085018561412f565b90925090508015612dff576014811015612ddb576040517f08c379a000000000000000000000000000000000000000000000000000000000815260206004820152601d60248201527f4141393320696e76616c6964207061796d6173746572416e64446174610000006044820152606401610639565b612de9601460008385614434565b612df29161445e565b60601c60a0840152610e34565b600060a084015250505050565b60a0810151600090819073ffffffffffffffffffffffffffffffffffffffff16612e37576001612e3a565b60035b60ff16905060008360800151828560600151028560400151010190508360c00151810292505050919050565b60008060005a8551805191925090612e8b8988612e8660408c018c61412f565b613567565b60a0820151612e9943600052565b600073ffffffffffffffffffffffffffffffffffffffff8216612f025773ffffffffffffffffffffffffffffffffffffffff83166000908152602081905260409020546dffffffffffffffffffffffffffff16888111612efb57808903612efe565b60005b9150505b606084015160208a01516040517f3a871cdd00000000000000000000000000000000000000000000000000000000815273ffffffffffffffffffffffffffffffffffffffff861692633a871cdd929091612f62918f918790600401614948565b60206040518083038160008887f193505050508015612fbc575060408051601f3d9081017fffffffffffffffffffffffffffffffffffffffffffffffffffffffffffffffe0168201909252612fb9918101906148ec565b60015b61306657612fc8614722565b806308c379a003612ff95750612fdc61473e565b80612fe75750612ffb565b8b816040516020016121c7919061496d565b505b8a6040517f220266b60000000000000000000000000000000000000000000000000000000081526004016106399181526040602082018190526016908201527f4141323320726576657274656420286f72204f4f472900000000000000000000606082015260800190565b955073ffffffffffffffffffffffffffffffffffffffff82166131695773ffffffffffffffffffffffffffffffffffffffff8316600090815260208190526040902080546dffffffffffffffffffffffffffff16808a111561312d578c6040517f220266b60000000000000000000000000000000000000000000000000000000081526004016106399181526040602082018190526017908201527f41413231206469646e2774207061792070726566756e64000000000000000000606082015260800190565b81547fffffffffffffffffffffffffffffffffffff000000000000000000000000000016908a90036dffffffffffffffffffffffffffff161790555b5a85039650505050505094509492505050565b825160608181015190916000918481116131f2576040517f08c379a000000000000000000000000000000000000000000000000000000000815260206004820152601f60248201527f4141343120746f6f206c6974746c6520766572696669636174696f6e476173006044820152606401610639565b60a082015173ffffffffffffffffffffffffffffffffffffffff8116600090815260208190526040902080548784039291906dffffffffffffffffffffffffffff16898110156132a7578c6040517f220266b6000000000000000000000000000000000000000000000000000000008152600401610639918152604060208201819052601e908201527f41413331207061796d6173746572206465706f73697420746f6f206c6f770000606082015260800190565b8981038260000160006101000a8154816dffffffffffffffffffffffffffff02191690836dffffffffffffffffffffffffffff1602179055508273ffffffffffffffffffffffffffffffffffffffff1663f465c77e858e8e602001518e6040518563ffffffff1660e01b815260040161332293929190614948565b60006040518083038160008887f19350505050801561338157506040513d6000823e601f3d9081017fffffffffffffffffffffffffffffffffffffffffffffffffffffffffffffffe016820160405261337e91908101906149b2565b60015b61342b5761338d614722565b806308c379a0036133be57506133a161473e565b806133ac57506133c0565b8d816040516020016121c79190614a3e565b505b8c6040517f220266b60000000000000000000000000000000000000000000000000000000081526004016106399181526040602082018190526016908201527f4141333320726576657274656420286f72204f4f472900000000000000000000606082015260800190565b909e909d509b505050505050505050505050565b6000808260000361345557506000928392509050565b6000613460846134d1565b9050806040015165ffffffffffff164211806134875750806020015165ffffffffffff1642105b905194909350915050565b60603660006134a561014085018561412f565b915091508360208184030360405194506020810185016040528085528082602087013750505050919050565b60408051606081018252600080825260208201819052918101919091528160a081901c65ffffffffffff811660000361350d575065ffffffffffff5b6040805160608101825273ffffffffffffffffffffffffffffffffffffffff909316835260d09490941c602083015265ffffffffffff16928101929092525090565b600081831061355e5781613560565b825b9392505050565b8015610e345782515173ffffffffffffffffffffffffffffffffffffffff81163b156135f857846040517f220266b6000000000000000000000000000000000000000000000000000000008152600401610639918152604060208201819052601f908201527f414131302073656e64657220616c726561647920636f6e737472756374656400606082015260800190565b8351606001516040517f570e1a3600000000000000000000000000000000000000000000000000000000815260009173ffffffffffffffffffffffffffffffffffffffff7f0000000000000000000000000000000000000000000000000000000000000000169163570e1a36919061367690889088906004016144a6565b60206040518083038160008887f1158015613695573d6000803e3d6000fd5b50505050506040513d601f19601f820116820180604052508101906136ba91906144ba565b905073ffffffffffffffffffffffffffffffffffffffff811661374257856040517f220266b6000000000000000000000000000000000000000000000000000000008152600401610639918152604060208201819052601b908201527f4141313320696e6974436f6465206661696c6564206f72204f4f470000000000606082015260800190565b8173ffffffffffffffffffffffffffffffffffffffff168173ffffffffffffffffffffffffffffffffffffffff16146137df57856040517f220266b600000000000000000000000000000000000000000000000000000000815260040161063991815260406020808301829052908201527f4141313420696e6974436f6465206d7573742072657475726e2073656e646572606082015260800190565b8073ffffffffffffffffffffffffffffffffffffffff163b60000361386857856040517f220266b600000000000000000000000000000000000000000000000000000000815260040161063991815260406020808301829052908201527f4141313520696e6974436f6465206d757374206372656174652073656e646572606082015260800190565b60006138776014828688614434565b6138809161445e565b60601c90508273ffffffffffffffffffffffffffffffffffffffff1686602001517fd51a9c61267aa6196961883ecf5ff2da6619c37dac0fa92122513fb32c032d2d83896000015160a001516040516138fc92919073ffffffffffffffffffffffffffffffffffffffff92831681529116602082015260400190565b60405180910390a350505050505050565b6040518060a0016040528061398c604051806101000160405280600073ffffffffffffffffffffffffffffffffffffffff16815260200160008152602001600081526020016000815260200160008152602001600073ffffffffffffffffffffffffffffffffffffffff16815260200160008152602001600081525090565b8152602001600080191681526020016000815260200160008152602001600081525090565b6000602082840312156139c357600080fd5b813563ffffffff8116811461356057600080fd5b7f4e487b7100000000000000000000000000000000000000000000000000000000600052604160045260246000fd5b60a0810181811067ffffffffffffffff82111715613a2657613a266139d7565b60405250565b610100810181811067ffffffffffffffff82111715613a2657613a266139d7565b7fffffffffffffffffffffffffffffffffffffffffffffffffffffffffffffffe0601f830116810181811067ffffffffffffffff82111715613a9157613a916139d7565b6040525050565b600067ffffffffffffffff821115613ab257613ab26139d7565b50601f017fffffffffffffffffffffffffffffffffffffffffffffffffffffffffffffffe01660200190565b73ffffffffffffffffffffffffffffffffffffffff81168114612bd257600080fd5b8035613b0b81613ade565b919050565b6000818303610180811215613b2457600080fd5b604051613b3081613a06565b80925061010080831215613b4357600080fd5b6040519250613b5183613a2c565b613b5a85613b00565b835260208501356020840152604085013560408401526060850135606084015260808501356080840152613b9060a08601613b00565b60a084015260c085013560c084015260e085013560e084015282825280850135602083015250610120840135604082015261014084013560608201526101608401356080820152505092915050565b60008083601f840112613bf157600080fd5b50813567ffffffffffffffff811115613c0957600080fd5b602083019150836020828501011115613c2157600080fd5b9250929050565b6000806000806101c08587031215613c3f57600080fd5b843567ffffffffffffffff80821115613c5757600080fd5b818701915087601f830112613c6b57600080fd5b8135613c7681613a98565b604051613c838282613a4d565b8281528a6020848701011115613c9857600080fd5b82602086016020830137600060208483010152809850505050613cbe8860208901613b10565b94506101a0870135915080821115613cd557600080fd5b50613ce287828801613bdf565b95989497509550505050565b60008083601f840112613d0057600080fd5b50813567ffffffffffffffff811115613d1857600080fd5b6020830191508360208260051b8501011115613c2157600080fd5b600080600060408486031215613d4857600080fd5b833567ffffffffffffffff811115613d5f57600080fd5b613d6b86828701613cee565b9094509250506020840135613d7f81613ade565b809150509250925092565b60008060408385031215613d9d57600080fd5b8235613da881613ade565b946020939093013593505050565b600060208284031215613dc857600080fd5b813561356081613ade565b600080600080600060608688031215613deb57600080fd5b853567ffffffffffffffff80821115613e0357600080fd5b613e0f89838a01613bdf565b909750955060208801359150613e2482613ade565b90935060408701359080821115613e3a57600080fd5b50613e4788828901613bdf565b969995985093965092949392505050565b60008060208385031215613e6b57600080fd5b823567ffffffffffffffff811115613e8257600080fd5b613e8e85828601613bdf565b90969095509350505050565b60006101608284031215613ead57600080fd5b50919050565b600060208284031215613ec557600080fd5b813567ffffffffffffffff811115613edc57600080fd5b612ce484828501613e9a565b60008060008060608587031215613efe57600080fd5b843567ffffffffffffffff80821115613f1657600080fd5b613f2288838901613e9a565b955060208701359150613f3482613ade565b90935060408601359080821115613cd557600080fd5b7f4e487b7100000000000000000000000000000000000000000000000000000000600052601160045260246000fd5b80820180821115612cb657612cb6613f4a565b60005b83811015613fa7578181015183820152602001613f8f565b50506000910152565b60008151808452613fc8816020860160208601613f8c565b601f017fffffffffffffffffffffffffffffffffffffffffffffffffffffffffffffffe0169290920160200192915050565b828152604060208201526000612ce46040830184613fb0565b7f4e487b7100000000000000000000000000000000000000000000000000000000600052603260045260246000fd5b600082357ffffffffffffffffffffffffffffffffffffffffffffffffffffffffffffffea183360301811261407657600080fd5b9190910192915050565b81810381811115612cb657612cb6613f4a565b600082357fffffffffffffffffffffffffffffffffffffffffffffffffffffffffffffffa183360301811261407657600080fd5b60008083357fffffffffffffffffffffffffffffffffffffffffffffffffffffffffffffffe18436030181126140fc57600080fd5b83018035915067ffffffffffffffff82111561411757600080fd5b6020019150600581901b3603821315613c2157600080fd5b60008083357fffffffffffffffffffffffffffffffffffffffffffffffffffffffffffffffe184360301811261416457600080fd5b83018035915067ffffffffffffffff82111561417f57600080fd5b602001915036819003821315613c2157600080fd5b60008083357fffffffffffffffffffffffffffffffffffffffffffffffffffffffffffffffe18436030181126141c957600080fd5b830160208101925035905067ffffffffffffffff8111156141e957600080fd5b803603821315613c2157600080fd5b8183528181602085013750600060208284010152600060207fffffffffffffffffffffffffffffffffffffffffffffffffffffffffffffffe0601f840116840101905092915050565b600061016061426d8461425385613b00565b73ffffffffffffffffffffffffffffffffffffffff169052565b602083013560208501526142846040840184614194565b82604087015261429783870182846141f8565b925050506142a86060840184614194565b85830360608701526142bb8382846141f8565b925050506080830135608085015260a083013560a085015260c083013560c085015260e083013560e085015261010080840135818601525061012061430281850185614194565b868403838801526143148482846141f8565b935050505061014061432881850185614194565b8684038388015261433a8482846141f8565b979650505050505050565b6040808252810184905260006060600586901b830181019083018783805b898110156143e5577fffffffffffffffffffffffffffffffffffffffffffffffffffffffffffffffa087860301845282357ffffffffffffffffffffffffffffffffffffffffffffffffffffffffffffffea18c36030181126143c3578283fd5b6143cf868d8301614241565b9550506020938401939290920191600101614363565b50505050828103602084015261433a8185876141f8565b60007fffffffffffffffffffffffffffffffffffffffffffffffffffffffffffffffff820361442d5761442d613f4a565b5060010190565b6000808585111561444457600080fd5b8386111561445157600080fd5b5050820193919092039150565b7fffffffffffffffffffffffffffffffffffffffff000000000000000000000000813581811691601485101561449e5780818660140360031b1b83161692505b505092915050565b602081526000612ce46020830184866141f8565b6000602082840312156144cc57600080fd5b815161356081613ade565b65ffffffffffff8181168382160190808211156144f6576144f6613f4a565b5092915050565b8183823760009101908152919050565b868152856020820152600065ffffffffffff8087166040840152808616606084015250831515608083015260c060a083015261454c60c0830184613fb0565b98975050505050505050565b80518252602081015160208301526040810151151560408301526000606082015165ffffffffffff8082166060860152806080850151166080860152505060a082015160c060a0850152612ce460c0850182613fb0565b60006101408083526145c381840189614558565b9150506145dd602083018780518252602090810151910152565b845160608301526020948501516080830152835160a08301529284015160c0820152815173ffffffffffffffffffffffffffffffffffffffff1660e0820152908301518051610100830152909201516101209092019190915292915050565b60e08152600061464f60e0830187614558565b9050614668602083018680518252602090810151910152565b8351606083015260208401516080830152825160a0830152602083015160c083015295945050505050565b7f4e487b7100000000000000000000000000000000000000000000000000000000600052602160045260246000fd5b6000600385106146fb577f4e487b7100000000000000000000000000000000000000000000000000000000600052602160045260246000fd5b848252606060208301526147126060830185613fb0565b9050826040830152949350505050565b600060033d111561473b5760046000803e5060005160e01c5b90565b600060443d101561474c5790565b6040517ffffffffffffffffffffffffffffffffffffffffffffffffffffffffffffffffc803d016004833e81513d67ffffffffffffffff816024840111818411171561479a57505050505090565b82850191508151818111156147b25750505050505090565b843d87010160208285010111156147cc5750505050505090565b6147db60208286010187613a4d565b509095945050505050565b7f4141353020706f73744f702072657665727465643a200000000000000000000081526000825161481e816016850160208701613f8c565b9190910160160192915050565b60006101c080835261484081840187896141f8565b9050845173ffffffffffffffffffffffffffffffffffffffff808251166020860152602082015160408601526040820151606086015260608201516080860152608082015160a08601528060a08301511660c08601525060c081015160e085015260e08101516101008501525060208501516101208401526040850151610140840152606085015161016084015260808501516101808401528281036101a084015261433a8185613fb0565b6000602082840312156148fe57600080fd5b5051919050565b6060815260006149196060830187896141f8565b73ffffffffffffffffffffffffffffffffffffffff86166020840152828103604084015261454c8185876141f8565b60608152600061495b6060830186614241565b60208301949094525060400152919050565b7f414132332072657665727465643a2000000000000000000000000000000000008152600082516149a581600f850160208701613f8c565b91909101600f0192915050565b600080604083850312156149c557600080fd5b825167ffffffffffffffff8111156149dc57600080fd5b8301601f810185136149ed57600080fd5b80516149f881613a98565b604051614a058282613a4d565b828152876020848601011115614a1a57600080fd5b614a2b836020830160208701613f8c565b6020969096015195979596505050505050565b7f414133332072657665727465643a2000000000000000000000000000000000008152600082516149a581600f850160208701613f8c56fea2646970667358221220465fd06f4d628ed8b787eba25ac1ebc4c15b5baa9f1f52135b5de443b25b54bf64736f6c63430008140033608060405234801561001057600080fd5b50610213806100206000396000f3fe608060405234801561001057600080fd5b506004361061002b5760003560e01c8063570e1a3614610030575b600080fd5b61004361003e3660046100f9565b61006c565b60405173ffffffffffffffffffffffffffffffffffffffff909116815260200160405180910390f35b60008061007c601482858761016b565b61008591610195565b60601c90506000610099846014818861016b565b8080601f016020809104026020016040519081016040528093929190818152602001838380828437600092018290525084519495509360209350849250905082850182875af190506000519350806100f057600093505b50505092915050565b6000806020838503121561010c57600080fd5b823567ffffffffffffffff8082111561012457600080fd5b818501915085601f83011261013857600080fd5b81358181111561014757600080fd5b86602082850101111561015957600080fd5b60209290920196919550909350505050565b6000808585111561017b57600080fd5b8386111561018857600080fd5b5050820193919092039150565b7fffffffffffffffffffffffffffffffffffffffff00000000000000000000000081358181169160148510156101d55780818660140360031b1b83161692505b50509291505056fea2646970667358221220f77e9e50fcbb00f89e85f0a157efd38b92c1cd8791fe986e4d2425bb39f0f96664736f6c63430008140033",
  "devdoc": {
    "errors": {
      "FailedOp(uint256,string)": [
        {
          "params": {
            "opIndex": "- index into the array of ops to the failed one (in simulateValidation, this is always zero)",
            "reason": "- revert reason      The string starts with a unique code \"AAmn\", where \"m\" is \"1\" for factory, \"2\" for account and \"3\" for paymaster issues,      so a failure can be attributed to the correct entity.   Should be caught in off-chain handleOps simulation and not happen on-chain.   Useful for mitigating DoS attempts against batchers or for troubleshooting of factory/account/paymaster reverts."
          }
        }
      ],
      "ValidationResult((uint256,uint256,bool,uint48,uint48,bytes),(uint256,uint256),(uint256,uint256),(uint256,uint256))": [
        {
          "params": {
            "factoryInfo": "stake information about the factory (if any)",
            "paymasterInfo": "stake information about the paymaster (if any)",
            "returnInfo": "gas and time-range returned values",
            "senderInfo": "stake information about the sender"
          }
        }
      ],
      "ValidationResultWithAggregation((uint256,uint256,bool,uint48,uint48,bytes),(uint256,uint256),(uint256,uint256),(uint256,uint256),(address,(uint256,uint256)))": [
        {
          "params": {
            "aggregatorInfo": "signature aggregation info (if the account requires signature aggregator)      bundler MUST use it to verify the signature, or reject the UserOperation",
            "factoryInfo": "stake information about the factory (if any)",
            "paymasterInfo": "stake information about the paymaster (if any)",
            "returnInfo": "gas and time-range returned values",
            "senderInfo": "stake information about the sender"
          }
        }
      ]
    },
    "events": {
      "AccountDeployed(bytes32,address,address,address)": {
        "params": {
          "factory": "the factory used to deploy this account (in the initCode)",
          "paymaster": "the paymaster used by this UserOp",
          "sender": "the account that is deployed",
          "userOpHash": "the userOp that deployed this account. UserOperationEvent will follow."
        }
      },
      "UserOperationRevertReason(bytes32,address,uint256,bytes)": {
        "params": {
          "nonce": "the nonce used in the request",
          "revertReason": "- the return bytes from the (reverted) call to \"callData\".",
          "sender": "the sender of this request",
          "userOpHash": "the request unique identifier."
        }
      }
    },
    "kind": "dev",
    "methods": {
      "addStake(uint32)": {
        "params": {
          "unstakeDelaySec": "the new lock duration before the deposit can be withdrawn."
        }
      },
      "getDepositInfo(address)": {
        "returns": {
          "info": "- full deposit information of given account"
        }
      },
      "getSenderAddress(bytes)": {
        "params": {
          "initCode": "the constructor code to be passed into the UserOperation."
        }
      },
      "handleAggregatedOps(((address,uint256,bytes,bytes,uint256,uint256,uint256,uint256,uint256,bytes,bytes)[],address,bytes)[],address)": {
        "params": {
          "beneficiary": "the address to receive the fees",
          "opsPerAggregator": "the operations to execute, grouped by aggregator (or address(0) for no-aggregator accounts)"
        }
      },
      "handleOps((address,uint256,bytes,bytes,uint256,uint256,uint256,uint256,uint256,bytes,bytes)[],address)": {
        "params": {
          "beneficiary": "the address to receive the fees",
          "ops": "the operations to execute"
        }
      },
      "simulateHandleOp((address,uint256,bytes,bytes,uint256,uint256,uint256,uint256,uint256,bytes,bytes),address,bytes)": {
        "params": {
          "op": "the UserOperation to simulate",
          "target": "if nonzero, a target address to call after userop simulation. If called, the targetSuccess and targetResult        are set to the return from that call.",
          "targetCallData": "callData to pass to target address"
        }
      },
      "simulateValidation((address,uint256,bytes,bytes,uint256,uint256,uint256,uint256,uint256,bytes,bytes))": {
        "details": "this method always revert. Successful result is ValidationResult error. other errors are failures.The node must also verify it doesn't use banned opcodes, and that it doesn't reference storage outside the account's data.",
        "params": {
          "userOp": "the user operation to validate."
        }
      },
      "withdrawStake(address)": {
        "params": {
          "withdrawAddress": "the address to send withdrawn value."
        }
      },
      "withdrawTo(address,uint256)": {
        "params": {
          "withdrawAddress": "the address to send withdrawn value.",
          "withdrawAmount": "the amount to withdraw."
        }
      }
    },
    "version": 1
  },
  "userdoc": {
    "errors": {
      "ExecutionResult(uint256,uint256,uint48,uint48,bool,bytes)": [
        {
          "notice": "return value of simulateHandleOp"
        }
      ],
      "FailedOp(uint256,string)": [
        {
          "notice": "a custom revert error of handleOps, to identify the offending op.  NOTE: if simulateValidation passes successfully, there should be no reason for handleOps to fail on it."
        }
      ],
      "SenderAddressResult(address)": [
        {
          "notice": "return value of getSenderAddress"
        }
      ],
      "SignatureValidationFailed(address)": [
        {
          "notice": "error case when a signature aggregator fails to verify the aggregated signature it had created."
        }
      ],
      "ValidationResult((uint256,uint256,bool,uint48,uint48,bytes),(uint256,uint256),(uint256,uint256),(uint256,uint256))": [
        {
          "notice": "Successful result from simulateValidation."
        }
      ],
      "ValidationResultWithAggregation((uint256,uint256,bool,uint48,uint48,bytes),(uint256,uint256),(uint256,uint256),(uint256,uint256),(address,(uint256,uint256)))": [
        {
          "notice": "Successful result from simulateValidation, if the account returns a signature aggregator"
        }
      ]
    },
    "events": {
      "AccountDeployed(bytes32,address,address,address)": {
        "notice": "account \"sender\" was deployed."
      },
      "SignatureAggregatorChanged(address)": {
        "notice": "signature aggregator used by the following UserOperationEvents within this bundle."
      },
      "StakeLocked(address,uint256,uint256)": {
        "notice": "Emitted when stake or unstake delay are modified"
      },
      "StakeUnlocked(address,uint256)": {
        "notice": "Emitted once a stake is scheduled for withdrawal"
      },
      "UserOperationRevertReason(bytes32,address,uint256,bytes)": {
        "notice": "An event emitted if the UserOperation \"callData\" reverted with non-zero length"
      }
    },
    "kind": "user",
    "methods": {
      "SIG_VALIDATION_FAILED()": {
        "notice": "for simulation purposes, validateUserOp (and validatePaymasterUserOp) must return this value in case of signature failure, instead of revert."
      },
      "_validateSenderAndPaymaster(bytes,address,bytes)": {
        "notice": "Called only during simulation. This function always reverts to prevent warm/cold storage differentiation in simulation vs execution."
      },
      "addStake(uint32)": {
        "notice": "add to the account's stake - amount and delay any pending unstake is first cancelled."
      },
      "balanceOf(address)": {
        "notice": "return the deposit (for gas payment) of the account"
      },
      "depositTo(address)": {
        "notice": "add to the deposit of the given account"
      },
      "deposits(address)": {
        "notice": "maps paymaster to their deposits and stakes"
      },
      "getSenderAddress(bytes)": {
        "notice": "Get counterfactual sender address.  Calculate the sender contract address that will be generated by the initCode and salt in the UserOperation. this method always revert, and returns the address in SenderAddressResult error"
      },
      "getUserOpHash((address,uint256,bytes,bytes,uint256,uint256,uint256,uint256,uint256,bytes,bytes))": {
        "notice": "generate a request Id - unique identifier for this request. the request ID is a hash over the content of the userOp (except the signature), the entrypoint and the chainid."
      },
      "handleAggregatedOps(((address,uint256,bytes,bytes,uint256,uint256,uint256,uint256,uint256,bytes,bytes)[],address,bytes)[],address)": {
        "notice": "Execute a batch of UserOperation with Aggregators"
      },
      "handleOps((address,uint256,bytes,bytes,uint256,uint256,uint256,uint256,uint256,bytes,bytes)[],address)": {
        "notice": "Execute a batch of UserOperations. no signature aggregator is used. if any account requires an aggregator (that is, it returned an aggregator when performing simulateValidation), then handleAggregatedOps() must be used instead."
      },
      "innerHandleOp(bytes,((address,uint256,uint256,uint256,uint256,address,uint256,uint256),bytes32,uint256,uint256,uint256),bytes)": {
        "notice": "inner function to handle a UserOperation. Must be declared \"external\" to open a call context, but it can only be called by handleOps."
      },
      "simulateHandleOp((address,uint256,bytes,bytes,uint256,uint256,uint256,uint256,uint256,bytes,bytes),address,bytes)": {
        "notice": "simulate full execution of a UserOperation (including both validation and target execution) this method will always revert with \"ExecutionResult\". it performs full validation of the UserOperation, but ignores signature error. an optional target address is called after the userop succeeds, and its value is returned (before the entire call is reverted) Note that in order to collect the the success/failure of the target call, it must be executed with trace enabled to track the emitted events."
      },
      "simulateValidation((address,uint256,bytes,bytes,uint256,uint256,uint256,uint256,uint256,bytes,bytes))": {
        "notice": "Simulate a call to account.validateUserOp and paymaster.validatePaymasterUserOp."
      },
      "unlockStake()": {
        "notice": "attempt to unlock the stake. the value can be withdrawn (using withdrawStake) after the unstake delay."
      },
      "withdrawStake(address)": {
        "notice": "withdraw from the (unlocked) stake. must first call unlockStake and wait for the unstakeDelay to pass"
      },
      "withdrawTo(address,uint256)": {
        "notice": "withdraw from the deposit."
      }
    },
    "version": 1
  },
  "storageLayout": {
    "storage": [
      {
        "astId": 9720,
        "contract": "contracts/core/EntryPoint.sol:EntryPoint",
        "label": "deposits",
        "offset": 0,
        "slot": "0",
        "type": "t_mapping(t_address,t_struct(DepositInfo)10472_storage)"
      }
    ],
    "types": {
      "t_address": {
        "encoding": "inplace",
        "label": "address",
        "numberOfBytes": "20"
      },
      "t_bool": {
        "encoding": "inplace",
        "label": "bool",
        "numberOfBytes": "1"
      },
      "t_mapping(t_address,t_struct(DepositInfo)10472_storage)": {
        "encoding": "mapping",
        "key": "t_address",
        "label": "mapping(address => struct IStakeManager.DepositInfo)",
        "numberOfBytes": "32",
        "value": "t_struct(DepositInfo)10472_storage"
      },
      "t_struct(DepositInfo)10472_storage": {
        "encoding": "inplace",
        "label": "struct IStakeManager.DepositInfo",
        "members": [
          {
            "astId": 10463,
            "contract": "contracts/core/EntryPoint.sol:EntryPoint",
            "label": "deposit",
            "offset": 0,
            "slot": "0",
            "type": "t_uint112"
          },
          {
            "astId": 10465,
            "contract": "contracts/core/EntryPoint.sol:EntryPoint",
            "label": "staked",
            "offset": 14,
            "slot": "0",
            "type": "t_bool"
          },
          {
            "astId": 10467,
            "contract": "contracts/core/EntryPoint.sol:EntryPoint",
            "label": "stake",
            "offset": 15,
            "slot": "0",
            "type": "t_uint112"
          },
          {
            "astId": 10469,
            "contract": "contracts/core/EntryPoint.sol:EntryPoint",
            "label": "unstakeDelaySec",
            "offset": 0,
            "slot": "1",
            "type": "t_uint32"
          },
          {
            "astId": 10471,
            "contract": "contracts/core/EntryPoint.sol:EntryPoint",
            "label": "withdrawTime",
            "offset": 4,
            "slot": "1",
            "type": "t_uint48"
          }
        ],
        "numberOfBytes": "64"
      },
      "t_uint112": {
        "encoding": "inplace",
        "label": "uint112",
        "numberOfBytes": "14"
      },
      "t_uint32": {
        "encoding": "inplace",
        "label": "uint32",
        "numberOfBytes": "4"
      },
      "t_uint48": {
        "encoding": "inplace",
        "label": "uint48",
        "numberOfBytes": "6"
      }
    }
  }
}