{
  "address": "0x027BE875B41d534eF7c4037f1d6C431ab8A02BC1",
  "abi": [
    {
      "inputs": [
        {
          "internalType": "bool",
          "name": "success",
          "type": "bool"
        },
        {
          "internalType": "bytes",
          "name": "ret",
          "type": "bytes"
        }
      ],
      "name": "DelegateAndRevert",
      "type": "error"
    },
    {
      "inputs": [
        {
          "internalType": "uint256",
          "name": "opIndex",
          "type": "uint256"
        },
        {
          "internalType": "string",
          "name": "reason",
          "type": "string"
        }
      ],
      "name": "FailedOp",
      "type": "error"
    },
    {
      "inputs": [
        {
          "internalType": "uint256",
          "name": "opIndex",
          "type": "uint256"
        },
        {
          "internalType": "string",
          "name": "reason",
          "type": "string"
        },
        {
          "internalType": "bytes",
          "name": "inner",
          "type": "bytes"
        }
      ],
      "name": "FailedOpWithRevert",
      "type": "error"
    },
    {
      "inputs": [
        {
          "internalType": "bytes",
          "name": "returnData",
          "type": "bytes"
        }
      ],
      "name": "PostOpReverted",
      "type": "error"
    },
    {
      "inputs": [],
      "name": "ReentrancyGuardReentrantCall",
      "type": "error"
    },
    {
      "inputs": [
        {
          "internalType": "address",
          "name": "sender",
          "type": "address"
        }
      ],
      "name": "SenderAddressResult",
      "type": "error"
    },
    {
      "inputs": [
        {
          "internalType": "address",
          "name": "aggregator",
          "type": "address"
        }
      ],
      "name": "SignatureValidationFailed",
      "type": "error"
    },
    {
      "anonymous": false,
      "inputs": [
        {
          "indexed": true,
          "internalType": "bytes32",
          "name": "userOpHash",
          "type": "bytes32"
        },
        {
          "indexed": true,
          "internalType": "address",
          "name": "sender",
          "type": "address"
        },
        {
          "indexed": false,
          "internalType": "address",
          "name": "factory",
          "type": "address"
        },
        {
          "indexed": false,
          "internalType": "address",
          "name": "paymaster",
          "type": "address"
        }
      ],
      "name": "AccountDeployed",
      "type": "event"
    },
    {
      "anonymous": false,
      "inputs": [],
      "name": "BeforeExecution",
      "type": "event"
    },
    {
      "anonymous": false,
      "inputs": [
        {
          "indexed": true,
          "internalType": "address",
          "name": "account",
          "type": "address"
        },
        {
          "indexed": false,
          "internalType": "uint256",
          "name": "totalDeposit",
          "type": "uint256"
        }
      ],
      "name": "Deposited",
      "type": "event"
    },
    {
      "anonymous": false,
      "inputs": [
        {
          "indexed": true,
          "internalType": "bytes32",
          "name": "userOpHash",
          "type": "bytes32"
        },
        {
          "indexed": true,
          "internalType": "address",
          "name": "sender",
          "type": "address"
        },
        {
          "indexed": false,
          "internalType": "uint256",
          "name": "nonce",
          "type": "uint256"
        },
        {
          "indexed": false,
          "internalType": "bytes",
          "name": "revertReason",
          "type": "bytes"
        }
      ],
      "name": "PostOpRevertReason",
      "type": "event"
    },
    {
      "anonymous": false,
      "inputs": [
        {
          "indexed": true,
          "internalType": "address",
          "name": "aggregator",
          "type": "address"
        }
      ],
      "name": "SignatureAggregatorChanged",
      "type": "event"
    },
    {
      "anonymous": false,
      "inputs": [
        {
          "indexed": true,
          "internalType": "address",
          "name": "account",
          "type": "address"
        },
        {
          "indexed": false,
          "internalType": "uint256",
          "name": "totalStaked",
          "type": "uint256"
        },
        {
          "indexed": false,
          "internalType": "uint256",
          "name": "unstakeDelaySec",
          "type": "uint256"
        }
      ],
      "name": "StakeLocked",
      "type": "event"
    },
    {
      "anonymous": false,
      "inputs": [
        {
          "indexed": true,
          "internalType": "address",
          "name": "account",
          "type": "address"
        },
        {
          "indexed": false,
          "internalType": "uint256",
          "name": "withdrawTime",
          "type": "uint256"
        }
      ],
      "name": "StakeUnlocked",
      "type": "event"
    },
    {
      "anonymous": false,
      "inputs": [
        {
          "indexed": true,
          "internalType": "address",
          "name": "account",
          "type": "address"
        },
        {
          "indexed": false,
          "internalType": "address",
          "name": "withdrawAddress",
          "type": "address"
        },
        {
          "indexed": false,
          "internalType": "uint256",
          "name": "amount",
          "type": "uint256"
        }
      ],
      "name": "StakeWithdrawn",
      "type": "event"
    },
    {
      "anonymous": false,
      "inputs": [
        {
          "indexed": true,
          "internalType": "bytes32",
          "name": "userOpHash",
          "type": "bytes32"
        },
        {
          "indexed": true,
          "internalType": "address",
          "name": "sender",
          "type": "address"
        },
        {
          "indexed": true,
          "internalType": "address",
          "name": "paymaster",
          "type": "address"
        },
        {
          "indexed": false,
          "internalType": "uint256",
          "name": "nonce",
          "type": "uint256"
        },
        {
          "indexed": false,
          "internalType": "bool",
          "name": "success",
          "type": "bool"
        },
        {
          "indexed": false,
          "internalType": "uint256",
          "name": "actualGasCost",
          "type": "uint256"
        },
        {
          "indexed": false,
          "internalType": "uint256",
          "name": "actualGasUsed",
          "type": "uint256"
        }
      ],
      "name": "UserOperationEvent",
      "type": "event"
    },
    {
      "anonymous": false,
      "inputs": [
        {
          "indexed": true,
          "internalType": "bytes32",
          "name": "userOpHash",
          "type": "bytes32"
        },
        {
          "indexed": true,
          "internalType": "address",
          "name": "sender",
          "type": "address"
        },
        {
          "indexed": false,
          "internalType": "uint256",
          "name": "nonce",
          "type": "uint256"
        },
        {
          "indexed": false,
          "internalType": "bytes",
          "name": "revertReason",
          "type": "bytes"
        }
      ],
      "name": "UserOperationRevertReason",
      "type": "event"
    },
    {
      "anonymous": false,
      "inputs": [
        {
          "indexed": true,
          "internalType": "address",
          "name": "account",
          "type": "address"
        },
        {
          "indexed": false,
          "internalType": "address",
          "name": "withdrawAddress",
          "type": "address"
        },
        {
          "indexed": false,
          "internalType": "uint256",
          "name": "amount",
          "type": "uint256"
        }
      ],
      "name": "Withdrawn",
      "type": "event"
    },
    {
      "inputs": [],
      "name": "SIG_VALIDATION_FAILED",
      "outputs": [
        {
          "internalType": "uint256",
          "name": "",
          "type": "uint256"
        }
      ],
      "stateMutability": "view",
      "type": "function"
    },
    {
      "inputs": [
        {
          "internalType": "uint32",
          "name": "unstakeDelaySec",
          "type": "uint32"
        }
      ],
      "name": "addStake",
      "outputs": [],
      "stateMutability": "payable",
      "type": "function"
    },
    {
      "inputs": [
        {
          "internalType": "address",
          "name": "account",
          "type": "address"
        }
      ],
      "name": "balanceOf",
      "outputs": [
        {
          "internalType": "uint256",
          "name": "",
          "type": "uint256"
        }
      ],
      "stateMutability": "view",
      "type": "function"
    },
    {
      "inputs": [
        {
          "internalType": "address",
          "name": "target",
          "type": "address"
        },
        {
          "internalType": "bytes",
          "name": "data",
          "type": "bytes"
        }
      ],
      "name": "delegateAndRevert",
      "outputs": [],
      "stateMutability": "nonpayable",
      "type": "function"
    },
    {
      "inputs": [
        {
          "internalType": "address",
          "name": "account",
          "type": "address"
        }
      ],
      "name": "depositTo",
      "outputs": [],
      "stateMutability": "payable",
      "type": "function"
    },
    {
      "inputs": [
        {
          "internalType": "address",
          "name": "",
          "type": "address"
        }
      ],
      "name": "deposits",
      "outputs": [
        {
          "internalType": "uint256",
          "name": "deposit",
          "type": "uint256"
        },
        {
          "internalType": "bool",
          "name": "staked",
          "type": "bool"
        },
        {
          "internalType": "uint112",
          "name": "stake",
          "type": "uint112"
        },
        {
          "internalType": "uint32",
          "name": "unstakeDelaySec",
          "type": "uint32"
        },
        {
          "internalType": "uint48",
          "name": "withdrawTime",
          "type": "uint48"
        }
      ],
      "stateMutability": "view",
      "type": "function"
    },
    {
      "inputs": [
        {
          "internalType": "address",
          "name": "account",
          "type": "address"
        }
      ],
      "name": "getDepositInfo",
      "outputs": [
        {
          "components": [
            {
              "internalType": "uint256",
              "name": "deposit",
              "type": "uint256"
            },
            {
              "internalType": "bool",
              "name": "staked",
              "type": "bool"
            },
            {
              "internalType": "uint112",
              "name": "stake",
              "type": "uint112"
            },
            {
              "internalType": "uint32",
              "name": "unstakeDelaySec",
              "type": "uint32"
            },
            {
              "internalType": "uint48",
              "name": "withdrawTime",
              "type": "uint48"
            }
          ],
          "internalType": "struct IStakeManager.DepositInfo",
          "name": "info",
          "type": "tuple"
        }
      ],
      "stateMutability": "view",
      "type": "function"
    },
    {
      "inputs": [
        {
          "internalType": "address",
          "name": "sender",
          "type": "address"
        },
        {
          "internalType": "uint192",
          "name": "key",
          "type": "uint192"
        }
      ],
      "name": "getNonce",
      "outputs": [
        {
          "internalType": "uint256",
          "name": "nonce",
          "type": "uint256"
        }
      ],
      "stateMutability": "view",
      "type": "function"
    },
    {
      "inputs": [
        {
          "internalType": "bytes",
          "name": "initCode",
          "type": "bytes"
        }
      ],
      "name": "getSenderAddress",
      "outputs": [],
      "stateMutability": "nonpayable",
      "type": "function"
    },
    {
      "inputs": [
        {
          "components": [
            {
              "internalType": "address",
              "name": "sender",
              "type": "address"
            },
            {
              "internalType": "uint256",
              "name": "nonce",
              "type": "uint256"
            },
            {
              "internalType": "bytes",
              "name": "initCode",
              "type": "bytes"
            },
            {
              "internalType": "bytes",
              "name": "callData",
              "type": "bytes"
            },
            {
              "internalType": "bytes32",
              "name": "accountGasLimits",
              "type": "bytes32"
            },
            {
              "internalType": "uint256",
              "name": "preVerificationGas",
              "type": "uint256"
            },
            {
              "internalType": "uint256",
              "name": "maxFeePerGas",
              "type": "uint256"
            },
            {
              "internalType": "uint256",
              "name": "maxPriorityFeePerGas",
              "type": "uint256"
            },
            {
              "internalType": "bytes",
              "name": "paymasterAndData",
              "type": "bytes"
            },
            {
              "internalType": "bytes",
              "name": "signature",
              "type": "bytes"
            }
          ],
          "internalType": "struct PackedUserOperation",
          "name": "userOp",
          "type": "tuple"
        }
      ],
      "name": "getUserOpHash",
      "outputs": [
        {
          "internalType": "bytes32",
          "name": "",
          "type": "bytes32"
        }
      ],
      "stateMutability": "view",
      "type": "function"
    },
    {
      "inputs": [
        {
          "components": [
            {
              "components": [
                {
                  "internalType": "address",
                  "name": "sender",
                  "type": "address"
                },
                {
                  "internalType": "uint256",
                  "name": "nonce",
                  "type": "uint256"
                },
                {
                  "internalType": "bytes",
                  "name": "initCode",
                  "type": "bytes"
                },
                {
                  "internalType": "bytes",
                  "name": "callData",
                  "type": "bytes"
                },
                {
                  "internalType": "bytes32",
                  "name": "accountGasLimits",
                  "type": "bytes32"
                },
                {
                  "internalType": "uint256",
                  "name": "preVerificationGas",
                  "type": "uint256"
                },
                {
                  "internalType": "uint256",
                  "name": "maxFeePerGas",
                  "type": "uint256"
                },
                {
                  "internalType": "uint256",
                  "name": "maxPriorityFeePerGas",
                  "type": "uint256"
                },
                {
                  "internalType": "bytes",
                  "name": "paymasterAndData",
                  "type": "bytes"
                },
                {
                  "internalType": "bytes",
                  "name": "signature",
                  "type": "bytes"
                }
              ],
              "internalType": "struct PackedUserOperation[]",
              "name": "userOps",
              "type": "tuple[]"
            },
            {
              "internalType": "contract IAggregator",
              "name": "aggregator",
              "type": "address"
            },
            {
              "internalType": "bytes",
              "name": "signature",
              "type": "bytes"
            }
          ],
          "internalType": "struct IEntryPoint.UserOpsPerAggregator[]",
          "name": "opsPerAggregator",
          "type": "tuple[]"
        },
        {
          "internalType": "address payable",
          "name": "beneficiary",
          "type": "address"
        }
      ],
      "name": "handleAggregatedOps",
      "outputs": [],
      "stateMutability": "nonpayable",
      "type": "function"
    },
    {
      "inputs": [
        {
          "components": [
            {
              "internalType": "address",
              "name": "sender",
              "type": "address"
            },
            {
              "internalType": "uint256",
              "name": "nonce",
              "type": "uint256"
            },
            {
              "internalType": "bytes",
              "name": "initCode",
              "type": "bytes"
            },
            {
              "internalType": "bytes",
              "name": "callData",
              "type": "bytes"
            },
            {
              "internalType": "bytes32",
              "name": "accountGasLimits",
              "type": "bytes32"
            },
            {
              "internalType": "uint256",
              "name": "preVerificationGas",
              "type": "uint256"
            },
            {
              "internalType": "uint256",
              "name": "maxFeePerGas",
              "type": "uint256"
            },
            {
              "internalType": "uint256",
              "name": "maxPriorityFeePerGas",
              "type": "uint256"
            },
            {
              "internalType": "bytes",
              "name": "paymasterAndData",
              "type": "bytes"
            },
            {
              "internalType": "bytes",
              "name": "signature",
              "type": "bytes"
            }
          ],
          "internalType": "struct PackedUserOperation[]",
          "name": "ops",
          "type": "tuple[]"
        },
        {
          "internalType": "address payable",
          "name": "beneficiary",
          "type": "address"
        }
      ],
      "name": "handleOps",
      "outputs": [],
      "stateMutability": "nonpayable",
      "type": "function"
    },
    {
      "inputs": [
        {
          "internalType": "uint192",
          "name": "key",
          "type": "uint192"
        }
      ],
      "name": "incrementNonce",
      "outputs": [],
      "stateMutability": "nonpayable",
      "type": "function"
    },
    {
      "inputs": [
        {
          "internalType": "bytes",
          "name": "callData",
          "type": "bytes"
        },
        {
          "components": [
            {
              "components": [
                {
                  "internalType": "address",
                  "name": "sender",
                  "type": "address"
                },
                {
                  "internalType": "uint256",
                  "name": "nonce",
                  "type": "uint256"
                },
                {
                  "internalType": "uint256",
                  "name": "verificationGasLimit",
                  "type": "uint256"
                },
                {
                  "internalType": "uint256",
                  "name": "callGasLimit",
                  "type": "uint256"
                },
                {
                  "internalType": "uint256",
                  "name": "paymasterVerificationGasLimit",
                  "type": "uint256"
                },
                {
                  "internalType": "uint256",
                  "name": "paymasterPostOpGasLimit",
                  "type": "uint256"
                },
                {
                  "internalType": "uint256",
                  "name": "preVerificationGas",
                  "type": "uint256"
                },
                {
                  "internalType": "address",
                  "name": "paymaster",
                  "type": "address"
                },
                {
                  "internalType": "uint256",
                  "name": "maxFeePerGas",
                  "type": "uint256"
                },
                {
                  "internalType": "uint256",
                  "name": "maxPriorityFeePerGas",
                  "type": "uint256"
                }
              ],
              "internalType": "struct EntryPoint.MemoryUserOp",
              "name": "mUserOp",
              "type": "tuple"
            },
            {
              "internalType": "bytes32",
              "name": "userOpHash",
              "type": "bytes32"
            },
            {
              "internalType": "uint256",
              "name": "prefund",
              "type": "uint256"
            },
            {
              "internalType": "uint256",
              "name": "contextOffset",
              "type": "uint256"
            },
            {
              "internalType": "uint256",
              "name": "preOpGas",
              "type": "uint256"
            }
          ],
          "internalType": "struct EntryPoint.UserOpInfo",
          "name": "opInfo",
          "type": "tuple"
        },
        {
          "internalType": "bytes",
          "name": "context",
          "type": "bytes"
        }
      ],
      "name": "innerHandleOp",
      "outputs": [
        {
          "internalType": "uint256",
          "name": "actualGasCost",
          "type": "uint256"
        }
      ],
      "stateMutability": "nonpayable",
      "type": "function"
    },
    {
      "inputs": [
        {
          "internalType": "address",
          "name": "",
          "type": "address"
        },
        {
          "internalType": "uint192",
          "name": "",
          "type": "uint192"
        }
      ],
      "name": "nonceSequenceNumber",
      "outputs": [
        {
          "internalType": "uint256",
          "name": "",
          "type": "uint256"
        }
      ],
      "stateMutability": "view",
      "type": "function"
    },
    {
      "inputs": [
        {
          "internalType": "bytes4",
          "name": "interfaceId",
          "type": "bytes4"
        }
      ],
      "name": "supportsInterface",
      "outputs": [
        {
          "internalType": "bool",
          "name": "",
          "type": "bool"
        }
      ],
      "stateMutability": "view",
      "type": "function"
    },
    {
      "inputs": [],
      "name": "unlockStake",
      "outputs": [],
      "stateMutability": "nonpayable",
      "type": "function"
    },
    {
      "inputs": [
        {
          "internalType": "address payable",
          "name": "withdrawAddress",
          "type": "address"
        }
      ],
      "name": "withdrawStake",
      "outputs": [],
      "stateMutability": "nonpayable",
      "type": "function"
    },
    {
      "inputs": [
        {
          "internalType": "address payable",
          "name": "withdrawAddress",
          "type": "address"
        },
        {
          "internalType": "uint256",
          "name": "withdrawAmount",
          "type": "uint256"
        }
      ],
      "name": "withdrawTo",
      "outputs": [],
      "stateMutability": "nonpayable",
      "type": "function"
    },
    {
      "stateMutability": "payable",
      "type": "receive"
    }
  ],
  "transactionHash": "0x9d17e1df66258874a7dbf11811f26bf22e9cf295287c08d59364ee11ca8f2ece",
  "args": [],
  "numDeployments": 1,
  "solcInputHash": "ca051496984c9f9b6f1930e3694be19f",
  "bytecode": "0x60a0604052604051620000129062000055565b604051809103906000f0801580156200002f573d6000803e3d6000fd5b506001600160a01b03166080523480156200004957600080fd5b50600160025562000063565b61023380620045e683390190565b608051614560620000866000396000818161121601526131a001526145606000f3fe6080604052600436106101475760003560e01c80636b21db51116100c0578063b760faf911610074578063c23a5cea11610059578063c23a5cea1461052e578063ea8ad6121461054e578063fc7e286d1461056e57600080fd5b8063b760faf914610506578063bb9fe6bf1461051957600080fd5b8063850aaf62116100a5578063850aaf62146104b15780638f41ec5a146104d15780639b249f69146104e657600080fd5b80636b21db511461044e57806370a082311461046e57600080fd5b80630bd28e3b11610117578063205c2878116100fc578063205c28781461024a57806335567e1a1461026a5780635287ce12146102ff57600080fd5b80630bd28e3b146101f25780631b2e01b81461021257600080fd5b806242dc531461015c57806301ffc9a71461018f57806302101e49146101bf5780630396cb60146101df57600080fd5b366101575761015533610640565b005b600080fd5b34801561016857600080fd5b5061017c610177366004613830565b6106a2565b6040519081526020015b60405180910390f35b34801561019b57600080fd5b506101af6101aa3660046138f0565b61086d565b6040519015158152602001610186565b3480156101cb57600080fd5b5061017c6101da366004613932565b6109ea565b6101556101ed36600461396e565b610a2c565b3480156101fe57600080fd5b5061015561020d3660046139bc565b610dc2565b34801561021e57600080fd5b5061017c61022d3660046139d7565b600160209081526000928352604080842090915290825290205481565b34801561025657600080fd5b50610155610265366004613a0c565b610e0a565b34801561027657600080fd5b5061017c6102853660046139d7565b73ffffffffffffffffffffffffffffffffffffffff8216600090815260016020908152604080832077ffffffffffffffffffffffffffffffffffffffffffffffff8516845290915290819020549082901b7fffffffffffffffffffffffffffffffffffffffffffffffff0000000000000000161792915050565b34801561030b57600080fd5b506103ec61031a366004613a38565b6040805160a0810182526000808252602082018190529181018290526060810182905260808101919091525073ffffffffffffffffffffffffffffffffffffffff1660009081526020818152604091829020825160a0810184528154815260019091015460ff811615159282019290925261010082046dffffffffffffffffffffffffffff16928101929092526f01000000000000000000000000000000810463ffffffff166060830152730100000000000000000000000000000000000000900465ffffffffffff16608082015290565b6040516101869190600060a082019050825182526020830151151560208301526dffffffffffffffffffffffffffff604084015116604083015263ffffffff606084015116606083015265ffffffffffff608084015116608083015292915050565b34801561045a57600080fd5b50610155610469366004613a9a565b610fb4565b34801561047a57600080fd5b5061017c610489366004613a38565b73ffffffffffffffffffffffffffffffffffffffff1660009081526020819052604090205490565b3480156104bd57600080fd5b506101556104cc366004613af1565b611131565b3480156104dd57600080fd5b5061017c600181565b3480156104f257600080fd5b50610155610501366004613b46565b6111d6565b610155610514366004613a38565b610640565b34801561052557600080fd5b506101556112dd565b34801561053a57600080fd5b50610155610549366004613a38565b6114b5565b34801561055a57600080fd5b50610155610569366004613a9a565b6117a2565b34801561057a57600080fd5b506105f6610589366004613a38565b6000602081905290815260409020805460019091015460ff81169061010081046dffffffffffffffffffffffffffff16906f01000000000000000000000000000000810463ffffffff1690730100000000000000000000000000000000000000900465ffffffffffff1685565b6040805195865293151560208601526dffffffffffffffffffffffffffff9092169284019290925263ffffffff909116606083015265ffffffffffff16608082015260a001610186565b600061064c8234611c4e565b90508173ffffffffffffffffffffffffffffffffffffffff167f2da466a7b24304f47e87fa2e1e5a81b9831ce54fec19055ce277ca2f39ba42c48260405161069691815260200190565b60405180910390a25050565b6000805a9050333014610716576040517f08c379a000000000000000000000000000000000000000000000000000000000815260206004820152601760248201527f4141393220696e7465726e616c2063616c6c206f6e6c7900000000000000000060448201526064015b60405180910390fd5b8451606081015160a082015181016127100160405a603f028161073b5761073b613b88565b04101561076c577fdeaddead0000000000000000000000000000000000000000000000000000000060005260206000fd5b87516000901561080d576000610789846000015160008c86611c8e565b90508061080b57600061079d610800611ca6565b80519091501561080557846000015173ffffffffffffffffffffffffffffffffffffffff168a602001517f1c4fada7374c0a9ee8841fc38afe82932dc0f8e69012e927f061a8bae611a2018760200151846040516107fc929190613c25565b60405180910390a35b60019250505b505b600088608001515a860301905061085f6000838b8b8b8080601f016020809104026020016040519081016040528093929190818152602001838380828437600092019190915250889250611cd2915050565b9a9950505050505050505050565b60007fffffffff0000000000000000000000000000000000000000000000000000000082167f6c393cb700000000000000000000000000000000000000000000000000000000148061090057507fffffffff0000000000000000000000000000000000000000000000000000000082167f9d95230100000000000000000000000000000000000000000000000000000000145b8061094c57507fffffffff0000000000000000000000000000000000000000000000000000000082167fcf28ef9700000000000000000000000000000000000000000000000000000000145b8061099857507fffffffff0000000000000000000000000000000000000000000000000000000082167f3e84f02100000000000000000000000000000000000000000000000000000000145b806109e457507f01ffc9a7000000000000000000000000000000000000000000000000000000007fffffffff000000000000000000000000000000000000000000000000000000008316145b92915050565b60006109f582611f94565b6040805160208101929092523090820152466060820152608001604051602081830303815290604052805190602001209050919050565b33600090815260208190526040902063ffffffff8216610aa8576040517f08c379a000000000000000000000000000000000000000000000000000000000815260206004820152601a60248201527f6d757374207370656369667920756e7374616b652064656c6179000000000000604482015260640161070d565b600181015463ffffffff6f0100000000000000000000000000000090910481169083161015610b33576040517f08c379a000000000000000000000000000000000000000000000000000000000815260206004820152601c60248201527f63616e6e6f7420646563726561736520756e7374616b652074696d6500000000604482015260640161070d565b6001810154600090610b5b90349061010090046dffffffffffffffffffffffffffff16613c6d565b905060008111610bc7576040517f08c379a000000000000000000000000000000000000000000000000000000000815260206004820152601260248201527f6e6f207374616b65207370656369666965640000000000000000000000000000604482015260640161070d565b6dffffffffffffffffffffffffffff811115610c3f576040517f08c379a000000000000000000000000000000000000000000000000000000000815260206004820152600e60248201527f7374616b65206f766572666c6f77000000000000000000000000000000000000604482015260640161070d565b6040805160a08101825283548152600160208083018281526dffffffffffffffffffffffffffff86811685870190815263ffffffff8a811660608801818152600060808a0181815233808352828a52918c90209a518b55965199909801805494519151965165ffffffffffff16730100000000000000000000000000000000000000027fffffffffffffff000000000000ffffffffffffffffffffffffffffffffffffff979094166f0100000000000000000000000000000002969096167fffffffffffffff00000000000000000000ffffffffffffffffffffffffffffff91909516610100027fffffffffffffffffffffffffffffffffff0000000000000000000000000000ff991515999099167fffffffffffffffffffffffffffffffffff00000000000000000000000000000090941693909317979097179190911691909117179055835185815290810192909252917fa5ae833d0bb1dcd632d98a8b70973e8516812898e19bf27b70071ebc8dc52c01910160405180910390a2505050565b33600090815260016020908152604080832077ffffffffffffffffffffffffffffffffffffffffffffffff851684529091528120805491610e0283613c80565b919050555050565b3360009081526020819052604090208054821115610e84576040517f08c379a000000000000000000000000000000000000000000000000000000000815260206004820152601960248201527f576974686472617720616d6f756e7420746f6f206c6172676500000000000000604482015260640161070d565b8054610e91908390613cb8565b81556040805173ffffffffffffffffffffffffffffffffffffffff851681526020810184905233917fd1c19fbcd4551a5edfb66d43d2e337c04837afda3482b42bdf569a8fccdae5fb910160405180910390a260008373ffffffffffffffffffffffffffffffffffffffff168360405160006040518083038185875af1925050503d8060008114610f3e576040519150601f19603f3d011682016040523d82523d6000602084013e610f43565b606091505b5050905080610fae576040517f08c379a000000000000000000000000000000000000000000000000000000000815260206004820152601260248201527f6661696c656420746f2077697468647261770000000000000000000000000000604482015260640161070d565b50505050565b610fbc611fad565b8160008167ffffffffffffffff811115610fd857610fd86135c9565b60405190808252806020026020018201604052801561101157816020015b610ffe613517565b815260200190600190039081610ff65790505b50905060005b8281101561108a57600082828151811061103357611033613ccb565b6020026020010151905060008061106e848a8a8781811061105657611056613ccb565b90506020028101906110689190613cfa565b85611fee565b9150915061107f8483836000612262565b505050600101611017565b506040516000907fbb47ee3e183a558b1a2ff0874b079f3fc5478b7454eacf2bfc5af2ff5878f972908290a160005b8381101561111457611108818888848181106110d7576110d7613ccb565b90506020028101906110e99190613cfa565b8584815181106110fb576110fb613ccb565b60200260200101516124b7565b909101906001016110b9565b5061111f8482612823565b50505061112c6001600255565b505050565b6000808473ffffffffffffffffffffffffffffffffffffffff16848460405161115b929190613d38565b600060405180830381855af49150503d8060008114611196576040519150601f19603f3d011682016040523d82523d6000602084013e61119b565b606091505b509150915081816040517f9941055400000000000000000000000000000000000000000000000000000000815260040161070d929190613d48565b6040517f570e1a3600000000000000000000000000000000000000000000000000000000815260009073ffffffffffffffffffffffffffffffffffffffff7f0000000000000000000000000000000000000000000000000000000000000000169063570e1a369061124d9086908690600401613dac565b6020604051808303816000875af115801561126c573d6000803e3d6000fd5b505050506040513d601f19601f820116820180604052508101906112909190613dc0565b6040517f6ca7b80600000000000000000000000000000000000000000000000000000000815273ffffffffffffffffffffffffffffffffffffffff8216600482015290915060240161070d565b336000908152602081905260408120600181015490916f0100000000000000000000000000000090910463ffffffff169003611375576040517f08c379a000000000000000000000000000000000000000000000000000000000815260206004820152600a60248201527f6e6f74207374616b656400000000000000000000000000000000000000000000604482015260640161070d565b600181015460ff166113e3576040517f08c379a000000000000000000000000000000000000000000000000000000000815260206004820152601160248201527f616c726561647920756e7374616b696e67000000000000000000000000000000604482015260640161070d565b600181015460009061140e906f01000000000000000000000000000000900463ffffffff1642613ddd565b6001830180547fffffffffffffff000000000000ffffffffffffffffffffffffffffffffffff001673010000000000000000000000000000000000000065ffffffffffff84169081027fffffffffffffffffffffffffffffffffffffffffffffffffffffffffffffff00169190911790915560405190815290915033907ffa9b3c14cc825c412c9ed81b3ba365a5b459439403f18829e572ed53a4180f0a90602001610696565b336000908152602081905260409020600181015461010090046dffffffffffffffffffffffffffff1680611545576040517f08c379a000000000000000000000000000000000000000000000000000000000815260206004820152601460248201527f4e6f207374616b6520746f207769746864726177000000000000000000000000604482015260640161070d565b6001820154730100000000000000000000000000000000000000900465ffffffffffff166115cf576040517f08c379a000000000000000000000000000000000000000000000000000000000815260206004820152601d60248201527f6d7573742063616c6c20756e6c6f636b5374616b652829206669727374000000604482015260640161070d565b60018201544273010000000000000000000000000000000000000090910465ffffffffffff16111561165d576040517f08c379a000000000000000000000000000000000000000000000000000000000815260206004820152601b60248201527f5374616b65207769746864726177616c206973206e6f74206475650000000000604482015260640161070d565b6001820180547fffffffffffffff000000000000000000000000000000000000000000000000ff1690556040805173ffffffffffffffffffffffffffffffffffffffff851681526020810183905233917fb7c918e0e249f999e965cafeb6c664271b3f4317d296461500e71da39f0cbda3910160405180910390a260008373ffffffffffffffffffffffffffffffffffffffff168260405160006040518083038185875af1925050503d8060008114611732576040519150601f19603f3d011682016040523d82523d6000602084013e611737565b606091505b5050905080610fae576040517f08c379a000000000000000000000000000000000000000000000000000000000815260206004820152601860248201527f6661696c656420746f207769746864726177207374616b650000000000000000604482015260640161070d565b6117aa611fad565b816000805b8281101561199c57368686838181106117ca576117ca613ccb565b90506020028101906117dc9190613e03565b90503660006117eb8380613e37565b909250905060006118026040850160208601613a38565b90507fffffffffffffffffffffffffffffffffffffffffffffffffffffffffffffffff73ffffffffffffffffffffffffffffffffffffffff8216016118a3576040517f08c379a000000000000000000000000000000000000000000000000000000000815260206004820152601760248201527f4141393620696e76616c69642061676772656761746f72000000000000000000604482015260640161070d565b73ffffffffffffffffffffffffffffffffffffffff8116156119805773ffffffffffffffffffffffffffffffffffffffff811663fe96cf2384846118ea6040890189613e9f565b6040518563ffffffff1660e01b81526004016119099493929190614060565b60006040518083038186803b15801561192157600080fd5b505afa925050508015611932575060015b611980576040517f86a9f75000000000000000000000000000000000000000000000000000000000815273ffffffffffffffffffffffffffffffffffffffff8216600482015260240161070d565b61198a8287613c6d565b955050600190930192506117af915050565b5060008167ffffffffffffffff8111156119b8576119b86135c9565b6040519080825280602002602001820160405280156119f157816020015b6119de613517565b8152602001906001900390816119d65790505b5090506000805b84811015611ace5736888883818110611a1357611a13613ccb565b9050602002810190611a259190613e03565b9050366000611a348380613e37565b90925090506000611a4b6040850160208601613a38565b90508160005b81811015611abc576000898981518110611a6d57611a6d613ccb565b60200260200101519050600080611a908b89898781811061105657611056613ccb565b91509150611aa084838389612262565b8a611aaa81613c80565b9b505060019093019250611a51915050565b5050600190940193506119f892505050565b506040517fbb47ee3e183a558b1a2ff0874b079f3fc5478b7454eacf2bfc5af2ff5878f97290600090a150600080805b85811015611c095736898983818110611b1957611b19613ccb565b9050602002810190611b2b9190613e03565b9050611b3d6040820160208301613a38565b73ffffffffffffffffffffffffffffffffffffffff167f575ff3acadd5ab348fe1855e217e0f3678f8d767d7494c9f9fefbee2e17cca4d60405160405180910390a2366000611b8c8380613e37565b90925090508060005b81811015611bf857611bd788858584818110611bb357611bb3613ccb565b9050602002810190611bc59190613cfa565b8b8b815181106110fb576110fb613ccb565b611be19088613c6d565b965087611bed81613c80565b985050600101611b95565b505060019093019250611afe915050565b506040516000907f575ff3acadd5ab348fe1855e217e0f3678f8d767d7494c9f9fefbee2e17cca4d908290a2611c3f8682612823565b505050505061112c6001600255565b73ffffffffffffffffffffffffffffffffffffffff8216600090815260208190526040812080548290611c82908590613c6d565b91829055509392505050565b6000806000845160208601878987f195945050505050565b60603d82811115611cb45750815b604051602082018101604052818152816000602083013e9392505050565b6000805a855190915060009081611ce88261296a565b60e083015190915073ffffffffffffffffffffffffffffffffffffffff8116611d145782519350611e0f565b809350600088511115611e0f57868202955060028a6002811115611d3a57611d3a614117565b14611e0f5760a08301516040517f7c627b2100000000000000000000000000000000000000000000000000000000815273ffffffffffffffffffffffffffffffffffffffff831691637c627b2191611d9c908e908d908c908990600401614146565b600060405180830381600088803b158015611db657600080fd5b5087f193505050508015611dc8575060015b611e0f576000611dd9610800611ca6565b9050806040517fad7954bc00000000000000000000000000000000000000000000000000000000815260040161070d91906141a9565b5a6060840151895191870398909801979015611e2c5760a0840151015b60808a0151880380821115611e4a576064600a828403020498909801975b505081870295508589604001511015611ec7578a6040517f220266b600000000000000000000000000000000000000000000000000000000815260040161070d91815260406020808301829052908201527f414135312070726566756e642062656c6f772061637475616c476173436f7374606082015260800190565b6040890151869003611ed98582611c4e565b506000808c6002811115611eef57611eef614117565b1490508460e0015173ffffffffffffffffffffffffffffffffffffffff16856000015173ffffffffffffffffffffffffffffffffffffffff168c602001517f49628fd1471006c1482da88028e9ce4dbb080b815c9b0344d39e5a8e6ec1419f8860200151858d8f604051611f7c949392919093845291151560208401526040830152606082015260800190565b60405180910390a45050505050505095945050505050565b6000611f9f8261299c565b805190602001209050919050565b6002805403611fe8576040517f3ee5aeb500000000000000000000000000000000000000000000000000000000815260040160405180910390fd5b60028055565b60008060005a84519091506120038682612a6d565b61200c866109ea565b85602001818152505060008660e001358760c001358360a001518460800151856060015186604001518760c0015117171717171790506effffffffffffffffffffffffffffff80168111156120bd576040517f08c379a000000000000000000000000000000000000000000000000000000000815260206004820152601860248201527f41413934206761732076616c756573206f766572666c6f770000000000000000604482015260640161070d565b60006120ec8360c081015160a08201516080830151606084015160408501516101009095015194010101010290565b90506120fa89898984612bbd565b955061210e83600001518460200151612e00565b61217d57886040517f220266b600000000000000000000000000000000000000000000000000000000815260040161070d918152604060208201819052601a908201527f4141323520696e76616c6964206163636f756e74206e6f6e6365000000000000606082015260800190565b60e083015160609073ffffffffffffffffffffffffffffffffffffffff16156121b1576121ac8a8a8a85612e5b565b965090505b60005a860390508085608001518660400151011015612235578a6040517f220266b600000000000000000000000000000000000000000000000000000000815260040161070d918152604060208201819052601e908201527f41413430206f76657220766572696669636174696f6e4761734c696d69740000606082015260800190565b604089018390528160608a015260a08a01355a870301896080018181525050505050505050935093915050565b60008061226e8561301c565b915091508173ffffffffffffffffffffffffffffffffffffffff168373ffffffffffffffffffffffffffffffffffffffff161461231057856040517f220266b600000000000000000000000000000000000000000000000000000000815260040161070d9181526040602082018190526014908201527f41413234207369676e6174757265206572726f72000000000000000000000000606082015260800190565b801561238157856040517f220266b600000000000000000000000000000000000000000000000000000000815260040161070d9181526040602082018190526017908201527f414132322065787069726564206f72206e6f7420647565000000000000000000606082015260800190565b600061238c8561301c565b9250905073ffffffffffffffffffffffffffffffffffffffff81161561241757866040517f220266b600000000000000000000000000000000000000000000000000000000815260040161070d9181526040602082018190526014908201527f41413334207369676e6174757265206572726f72000000000000000000000000606082015260800190565b81156124ae57866040517f220266b600000000000000000000000000000000000000000000000000000000815260040161070d9181526040602082018190526021908201527f41413332207061796d61737465722065787069726564206f72206e6f7420647560608201527f6500000000000000000000000000000000000000000000000000000000000000608082015260a00190565b50505050505050565b6000805a905060006124ca846060015190565b60405190915060009036826124e260608a018a613e9f565b91509150606060008260038111156124f957843591505b507fe752d1ee000000000000000000000000000000000000000000000000000000007fffffffff000000000000000000000000000000000000000000000000000000008216016126395760008b8b6020015160405160240161255c9291906141bc565b604080517fffffffffffffffffffffffffffffffffffffffffffffffffffffffffffffffe08184030181529181526020820180517bffffffffffffffffffffffffffffffffffffffffffffffffffffffff167f18ad2e12000000000000000000000000000000000000000000000000000000001790525190915030906242dc53906125ef9084908f908d906024016142a2565b604051602081830303815290604052915060e01b6020820180517bffffffffffffffffffffffffffffffffffffffffffffffffffffffff83818316178352505050509250506126b0565b3073ffffffffffffffffffffffffffffffffffffffff166242dc5385858d8b60405160240161266b94939291906142e2565b604051602081830303815290604052915060e01b6020820180517bffffffffffffffffffffffffffffffffffffffffffffffffffffffff838183161783525050505091505b602060008351602085016000305af195506000519850846040525050505050806128195760003d806020036126eb5760206000803e60005191505b507fdeaddead00000000000000000000000000000000000000000000000000000000810361277e57876040517f220266b600000000000000000000000000000000000000000000000000000000815260040161070d918152604060208201819052600f908201527f41413935206f7574206f66206761730000000000000000000000000000000000606082015260800190565b8551805160208089015192015173ffffffffffffffffffffffffffffffffffffffff90911691907ff62676f440ff169a3a9afdbf812e89e7f95975ee8e5c31214ffdef631c5f4792906127d2610800611ca6565b6040516127e0929190613c25565b60405180910390a3600086608001515a6127fa9087613cb8565b6128049190613c6d565b9050612814896002898785611cd2565b955050505b5050509392505050565b73ffffffffffffffffffffffffffffffffffffffff82166128a0576040517f08c379a000000000000000000000000000000000000000000000000000000000815260206004820152601860248201527f4141393020696e76616c69642062656e65666963696172790000000000000000604482015260640161070d565b60008273ffffffffffffffffffffffffffffffffffffffff168260405160006040518083038185875af1925050503d80600081146128fa576040519150601f19603f3d011682016040523d82523d6000602084013e6128ff565b606091505b505090508061112c576040517f08c379a000000000000000000000000000000000000000000000000000000000815260206004820152601f60248201527f41413931206661696c65642073656e6420746f2062656e656669636961727900604482015260640161070d565b61010081015161012082015160009190808203612988575092915050565b6129948248830161306f565b949350505050565b60608135602083013560006129bc6129b76040870187613e9f565b613087565b905060006129d06129b76060880188613e9f565b9050608086013560a087013560c088013560e089013560006129f96129b76101008d018d613e9f565b6040805173ffffffffffffffffffffffffffffffffffffffff9b909b1660208c01528a81019990995260608a019790975250608088019490945260a087019290925260c086015260e08501526101008401526101208084019190915281518084039091018152610140909201905292915050565b612a7a6020830183613a38565b73ffffffffffffffffffffffffffffffffffffffff168152602082810135908201526fffffffffffffffffffffffffffffffff60808084013591821660608401521c604082015260a082013560c0808301919091528201356101008083019190915260e08301356101208301523690600090612af890850185613e9f565b90925090508015612ba2576034811015612b6e576040517f08c379a000000000000000000000000000000000000000000000000000000000815260206004820152601d60248201527f4141393320696e76616c6964207061796d6173746572416e6444617461000000604482015260640161070d565b612b78828261309a565b60a0860152608085015273ffffffffffffffffffffffffffffffffffffffff1660e0840152610fae565b600060e084018190526080840181905260a084015250505050565b8151805160009190612bdc8786612bd760408a018a613e9f565b61310b565b60e0820151600073ffffffffffffffffffffffffffffffffffffffff8216612c3a5773ffffffffffffffffffffffffffffffffffffffff8316600090815260208190526040902054868111612c3357808703612c36565b60005b9150505b604080850151602089015191517f8803e45100000000000000000000000000000000000000000000000000000000815273ffffffffffffffffffffffffffffffffffffffff861692638803e4519291612c99918d918790600401614319565b60206040518083038160008887f193505050508015612cf3575060408051601f3d9081017fffffffffffffffffffffffffffffffffffffffffffffffffffffffffffffffe0168201909252612cf09181019061433e565b60015b612d375788612d03610800611ca6565b6040517f65c8fd4d00000000000000000000000000000000000000000000000000000000815260040161070d929190614357565b945073ffffffffffffffffffffffffffffffffffffffff8216612df45773ffffffffffffffffffffffffffffffffffffffff83166000908152602081905260409020805480881115612dee578a6040517f220266b600000000000000000000000000000000000000000000000000000000815260040161070d9181526040602082018190526017908201527f41413231206469646e2774207061792070726566756e64000000000000000000606082015260800190565b87900390555b50505050949350505050565b73ffffffffffffffffffffffffffffffffffffffff8216600090815260016020908152604080832084821c808552925282208054849167ffffffffffffffff8316919085612e4d83613c80565b909155501495945050505050565b815160e081015173ffffffffffffffffffffffffffffffffffffffff8116600090815260208190526040812080546060949293919086811015612f0357896040517f220266b600000000000000000000000000000000000000000000000000000000815260040161070d918152604060208201819052601e908201527f41413331207061796d6173746572206465706f73697420746f6f206c6f770000606082015260800190565b8681038255608084015160208901516040517f703ae88f00000000000000000000000000000000000000000000000000000000815273ffffffffffffffffffffffffffffffffffffffff86169263703ae88f929091612f68918e918d90600401614319565b60006040518083038160008887f193505050508015612fc757506040513d6000823e601f3d9081017fffffffffffffffffffffffffffffffffffffffffffffffffffffffffffffffe0168201604052612fc491908101906143a4565b60015b61300b5789612fd7610800611ca6565b6040517f65c8fd4d00000000000000000000000000000000000000000000000000000000815260040161070d929190614425565b909b909a5098505050505050505050565b6000808260000361303257506000928392509050565b600061303d84613499565b9050806040015165ffffffffffff164211806130645750806020015165ffffffffffff1642105b905194909350915050565b600081831061307e5781613080565b825b9392505050565b6000604051828085833790209392505050565b600080806130ab6014828688614472565b6130b49161449c565b60601c6130c5602460148789614472565b6130ce916144e4565b60801c6130df60346024888a614472565b6130e8916144e4565b9194506fffffffffffffffffffffffffffffffff16925060801c90509250925092565b8015610fae5782515173ffffffffffffffffffffffffffffffffffffffff81163b1561319c57846040517f220266b600000000000000000000000000000000000000000000000000000000815260040161070d918152604060208201819052601f908201527f414131302073656e64657220616c726561647920636f6e737472756374656400606082015260800190565b60007f000000000000000000000000000000000000000000000000000000000000000073ffffffffffffffffffffffffffffffffffffffff1663570e1a3686600001516040015186866040518463ffffffff1660e01b8152600401613202929190613dac565b60206040518083038160008887f1158015613221573d6000803e3d6000fd5b50505050506040513d601f19601f820116820180604052508101906132469190613dc0565b905073ffffffffffffffffffffffffffffffffffffffff81166132ce57856040517f220266b600000000000000000000000000000000000000000000000000000000815260040161070d918152604060208201819052601b908201527f4141313320696e6974436f6465206661696c6564206f72204f4f470000000000606082015260800190565b8173ffffffffffffffffffffffffffffffffffffffff168173ffffffffffffffffffffffffffffffffffffffff161461336b57856040517f220266b600000000000000000000000000000000000000000000000000000000815260040161070d91815260406020808301829052908201527f4141313420696e6974436f6465206d7573742072657475726e2073656e646572606082015260800190565b8073ffffffffffffffffffffffffffffffffffffffff163b6000036133f457856040517f220266b600000000000000000000000000000000000000000000000000000000815260040161070d91815260406020808301829052908201527f4141313520696e6974436f6465206d757374206372656174652073656e646572606082015260800190565b60006134036014828688614472565b61340c9161449c565b60601c90508273ffffffffffffffffffffffffffffffffffffffff1686602001517fd51a9c61267aa6196961883ecf5ff2da6619c37dac0fa92122513fb32c032d2d83896000015160e0015160405161348892919073ffffffffffffffffffffffffffffffffffffffff92831681529116602082015260400190565b60405180910390a350505050505050565b60408051606081018252600080825260208201819052918101919091528160a081901c65ffffffffffff81166000036134d5575065ffffffffffff5b6040805160608101825273ffffffffffffffffffffffffffffffffffffffff909316835260d09490941c602083015265ffffffffffff16928101929092525090565b6040518060a001604052806135a4604051806101400160405280600073ffffffffffffffffffffffffffffffffffffffff168152602001600081526020016000815260200160008152602001600081526020016000815260200160008152602001600073ffffffffffffffffffffffffffffffffffffffff16815260200160008152602001600081525090565b8152602001600080191681526020016000815260200160008152602001600081525090565b7f4e487b7100000000000000000000000000000000000000000000000000000000600052604160045260246000fd5b60405160a0810167ffffffffffffffff8111828210171561361b5761361b6135c9565b60405290565b604051610140810167ffffffffffffffff8111828210171561361b5761361b6135c9565b604051601f82017fffffffffffffffffffffffffffffffffffffffffffffffffffffffffffffffe016810167ffffffffffffffff8111828210171561368c5761368c6135c9565b604052919050565b600067ffffffffffffffff8211156136ae576136ae6135c9565b50601f017fffffffffffffffffffffffffffffffffffffffffffffffffffffffffffffffe01660200190565b73ffffffffffffffffffffffffffffffffffffffff811681146136fc57600080fd5b50565b803561370a816136da565b919050565b60008183036101c081121561372357600080fd5b61372b6135f8565b91506101408082121561373d57600080fd5b613745613621565b9150613750846136ff565b82526020840135602083015260408401356040830152606084013560608301526080840135608083015260a084013560a083015260c084013560c083015261379a60e085016136ff565b60e0830152610100848101359083015261012080850135908301529082528201356020820152610160820135604082015261018082013560608201526101a0909101356080820152919050565b60008083601f8401126137f957600080fd5b50813567ffffffffffffffff81111561381157600080fd5b60208301915083602082850101111561382957600080fd5b9250929050565b600080600080610200858703121561384757600080fd5b843567ffffffffffffffff8082111561385f57600080fd5b818701915087601f83011261387357600080fd5b813561388661388182613694565b613645565b81815289602083860101111561389b57600080fd5b8160208501602083013760006020838301015280975050506138c0886020890161370f565b94506101e08701359150808211156138d757600080fd5b506138e4878288016137e7565b95989497509550505050565b60006020828403121561390257600080fd5b81357fffffffff000000000000000000000000000000000000000000000000000000008116811461308057600080fd5b60006020828403121561394457600080fd5b813567ffffffffffffffff81111561395b57600080fd5b8201610140818503121561308057600080fd5b60006020828403121561398057600080fd5b813563ffffffff8116811461308057600080fd5b803577ffffffffffffffffffffffffffffffffffffffffffffffff8116811461370a57600080fd5b6000602082840312156139ce57600080fd5b61308082613994565b600080604083850312156139ea57600080fd5b82356139f5816136da565b9150613a0360208401613994565b90509250929050565b60008060408385031215613a1f57600080fd5b8235613a2a816136da565b946020939093013593505050565b600060208284031215613a4a57600080fd5b8135613080816136da565b60008083601f840112613a6757600080fd5b50813567ffffffffffffffff811115613a7f57600080fd5b6020830191508360208260051b850101111561382957600080fd5b600080600060408486031215613aaf57600080fd5b833567ffffffffffffffff811115613ac657600080fd5b613ad286828701613a55565b9094509250506020840135613ae6816136da565b809150509250925092565b600080600060408486031215613b0657600080fd5b8335613b11816136da565b9250602084013567ffffffffffffffff811115613b2d57600080fd5b613b39868287016137e7565b9497909650939450505050565b60008060208385031215613b5957600080fd5b823567ffffffffffffffff811115613b7057600080fd5b613b7c858286016137e7565b90969095509350505050565b7f4e487b7100000000000000000000000000000000000000000000000000000000600052601260045260246000fd5b60005b83811015613bd2578181015183820152602001613bba565b50506000910152565b60008151808452613bf3816020860160208601613bb7565b601f017fffffffffffffffffffffffffffffffffffffffffffffffffffffffffffffffe0169290920160200192915050565b8281526040602082015260006129946040830184613bdb565b7f4e487b7100000000000000000000000000000000000000000000000000000000600052601160045260246000fd5b808201808211156109e4576109e4613c3e565b60007fffffffffffffffffffffffffffffffffffffffffffffffffffffffffffffffff8203613cb157613cb1613c3e565b5060010190565b818103818111156109e4576109e4613c3e565b7f4e487b7100000000000000000000000000000000000000000000000000000000600052603260045260246000fd5b600082357ffffffffffffffffffffffffffffffffffffffffffffffffffffffffffffffec1833603018112613d2e57600080fd5b9190910192915050565b8183823760009101908152919050565b82151581526040602082015260006129946040830184613bdb565b8183528181602085013750600060208284010152600060207fffffffffffffffffffffffffffffffffffffffffffffffffffffffffffffffe0601f840116840101905092915050565b602081526000612994602083018486613d63565b600060208284031215613dd257600080fd5b8151613080816136da565b65ffffffffffff818116838216019080821115613dfc57613dfc613c3e565b5092915050565b600082357fffffffffffffffffffffffffffffffffffffffffffffffffffffffffffffffa1833603018112613d2e57600080fd5b60008083357fffffffffffffffffffffffffffffffffffffffffffffffffffffffffffffffe1843603018112613e6c57600080fd5b83018035915067ffffffffffffffff821115613e8757600080fd5b6020019150600581901b360382131561382957600080fd5b60008083357fffffffffffffffffffffffffffffffffffffffffffffffffffffffffffffffe1843603018112613ed457600080fd5b83018035915067ffffffffffffffff821115613eef57600080fd5b60200191503681900382131561382957600080fd5b60008083357fffffffffffffffffffffffffffffffffffffffffffffffffffffffffffffffe1843603018112613f3957600080fd5b830160208101925035905067ffffffffffffffff811115613f5957600080fd5b80360382131561382957600080fd5b6000610140613f9484613f7a856136ff565b73ffffffffffffffffffffffffffffffffffffffff169052565b60208301356020850152613fab6040840184613f04565b826040870152613fbe8387018284613d63565b92505050613fcf6060840184613f04565b8583036060870152613fe2838284613d63565b925050506080830135608085015260a083013560a085015260c083013560c085015260e083013560e085015261010061401d81850185613f04565b8684038388015261402f848284613d63565b935050505061012061404381850185613f04565b86840383880152614055848284613d63565b979650505050505050565b6040808252810184905260006060600586901b830181019083018783805b89811015614100577fffffffffffffffffffffffffffffffffffffffffffffffffffffffffffffffa087860301845282357ffffffffffffffffffffffffffffffffffffffffffffffffffffffffffffffec18c36030181126140de578283fd5b6140ea868d8301613f68565b955050602093840193929092019160010161407e565b505050508281036020840152614055818587613d63565b7f4e487b7100000000000000000000000000000000000000000000000000000000600052602160045260246000fd5b60006003861061417f577f4e487b7100000000000000000000000000000000000000000000000000000000600052602160045260246000fd5b858252608060208301526141966080830186613bdb565b6040830194909452506060015292915050565b6020815260006130806020830184613bdb565b6040815260006141cf6040830185613f68565b90508260208301529392505050565b8051805173ffffffffffffffffffffffffffffffffffffffff1683526020810151602084015260408101516040840152606081015160608401526080810151608084015260a081015160a084015260c081015160c084015260e081015161425d60e085018273ffffffffffffffffffffffffffffffffffffffff169052565b5061010081810151908401526101209081015190830152602081015161014083015260408101516101608301526060810151610180830152608001516101a090910152565b60006102008083526142b681840187613bdb565b90506142c560208401866141de565b8281036101e08401526142d88185613bdb565b9695505050505050565b60006102008083526142f78184018789613d63565b905061430660208401866141de565b8281036101e08401526140558185613bdb565b60608152600061432c6060830186613f68565b60208301949094525060400152919050565b60006020828403121561435057600080fd5b5051919050565b82815260606020820152600d60608201527f4141323320726576657274656400000000000000000000000000000000000000608082015260a06040820152600061299460a0830184613bdb565b600080604083850312156143b757600080fd5b825167ffffffffffffffff8111156143ce57600080fd5b8301601f810185136143df57600080fd5b80516143ed61388182613694565b81815286602083850101111561440257600080fd5b614413826020830160208601613bb7565b60209590950151949694955050505050565b82815260606020820152600d60608201527f4141333320726576657274656400000000000000000000000000000000000000608082015260a06040820152600061299460a0830184613bdb565b6000808585111561448257600080fd5b8386111561448f57600080fd5b5050820193919092039150565b7fffffffffffffffffffffffffffffffffffffffff00000000000000000000000081358181169160148510156144dc5780818660140360031b1b83161692505b505092915050565b7fffffffffffffffffffffffffffffffff0000000000000000000000000000000081358181169160108510156144dc5760109490940360031b84901b169092169291505056fea2646970667358221220ee5c2a3433036eca2156ea8c1e9c4751fee2749e9867e20ffc3b1377eeb8131764736f6c63430008170033608060405234801561001057600080fd5b50610213806100206000396000f3fe608060405234801561001057600080fd5b506004361061002b5760003560e01c8063570e1a3614610030575b600080fd5b61004361003e3660046100f9565b61006c565b60405173ffffffffffffffffffffffffffffffffffffffff909116815260200160405180910390f35b60008061007c601482858761016b565b61008591610195565b60601c90506000610099846014818861016b565b8080601f016020809104026020016040519081016040528093929190818152602001838380828437600092018290525084519495509360209350849250905082850182875af190506000519350806100f057600093505b50505092915050565b6000806020838503121561010c57600080fd5b823567ffffffffffffffff8082111561012457600080fd5b818501915085601f83011261013857600080fd5b81358181111561014757600080fd5b86602082850101111561015957600080fd5b60209290920196919550909350505050565b6000808585111561017b57600080fd5b8386111561018857600080fd5b5050820193919092039150565b7fffffffffffffffffffffffffffffffffffffffff00000000000000000000000081358181169160148510156101d55780818660140360031b1b83161692505b50509291505056fea2646970667358221220e69a1f48b6de34024b78af0b3365fe088e81dd2215d51365910a6b7b5c6114a164736f6c63430008170033",
  "devdoc": {
    "errors": {
      "FailedOp(uint256,string)": [
        {
          "params": {
            "opIndex": "- Index into the array of ops to the failed one (in simulateValidation, this is always zero).",
            "reason": "- Revert reason. The string starts with a unique code \"AAmn\",                  where \"m\" is \"1\" for factory, \"2\" for account and \"3\" for paymaster issues,                  so a failure can be attributed to the correct entity."
          }
        }
      ],
      "FailedOpWithRevert(uint256,string,bytes)": [
        {
          "details": "note that inner is truncated to 2048 bytes",
          "params": {
            "inner": "- data from inner cought revert reason",
            "opIndex": "- Index into the array of ops to the failed one (in simulateValidation, this is always zero).",
            "reason": "- Revert reason. see FailedOp(uint,string), above"
          }
        }
      ],
      "ReentrancyGuardReentrantCall()": [
        {
          "details": "Unauthorized reentrant call."
        }
      ],
      "SignatureValidationFailed(address)": [
        {
          "params": {
            "aggregator": "The aggregator that failed to verify the signature"
          }
        }
      ]
    },
    "events": {
      "AccountDeployed(bytes32,address,address,address)": {
        "params": {
          "factory": "- The factory used to deploy this account (in the initCode)",
          "paymaster": "- The paymaster used by this UserOp",
          "sender": "- The account that is deployed",
          "userOpHash": "- The userOp that deployed this account. UserOperationEvent will follow."
        }
      },
      "PostOpRevertReason(bytes32,address,uint256,bytes)": {
        "params": {
          "nonce": "- The nonce used in the request.",
          "revertReason": "- The return bytes from the (reverted) call to \"callData\".",
          "sender": "- The sender of this request.",
          "userOpHash": "- The request unique identifier."
        }
      },
      "SignatureAggregatorChanged(address)": {
        "params": {
          "aggregator": "- The aggregator used for the following UserOperationEvents."
        }
      },
      "UserOperationRevertReason(bytes32,address,uint256,bytes)": {
        "params": {
          "nonce": "- The nonce used in the request.",
          "revertReason": "- The return bytes from the (reverted) call to \"callData\".",
          "sender": "- The sender of this request.",
          "userOpHash": "- The request unique identifier."
        }
      }
    },
    "kind": "dev",
    "methods": {
      "addStake(uint32)": {
        "params": {
          "unstakeDelaySec": "The new lock duration before the deposit can be withdrawn."
        }
      },
      "balanceOf(address)": {
        "params": {
          "account": "- The account to query."
        }
      },
      "delegateAndRevert(address,bytes)": {
        "details": "calling this method, the EntryPoint will make a delegatecall to the given data, and report (via revert) the result.  The method always revert, so is only useful off-chain for dry run calls, in cases where state-override to replace  actual EntryPoint code is less convenient."
      },
      "depositTo(address)": {
        "params": {
          "account": "- The account to add to."
        }
      },
      "getDepositInfo(address)": {
        "params": {
          "account": "- The account to query."
        },
        "returns": {
          "info": "  - Full deposit information of given account."
        }
      },
      "getNonce(address,uint192)": {
        "params": {
          "key": "the high 192 bit of the nonce",
          "sender": "the account address"
        },
        "returns": {
          "nonce": "a full nonce to pass for next UserOp with this sender."
        }
      },
      "getSenderAddress(bytes)": {
        "params": {
          "initCode": "- The constructor code to be passed into the UserOperation."
        }
      },
      "getUserOpHash((address,uint256,bytes,bytes,bytes32,uint256,uint256,uint256,bytes,bytes))": {
        "params": {
          "userOp": "- The user operation to generate the request ID for."
        }
      },
      "handleAggregatedOps(((address,uint256,bytes,bytes,bytes32,uint256,uint256,uint256,bytes,bytes)[],address,bytes)[],address)": {
        "params": {
          "beneficiary": "- The address to receive the fees.",
          "opsPerAggregator": "- The operations to execute, grouped by aggregator (or address(0) for no-aggregator accounts)."
        }
      },
      "handleOps((address,uint256,bytes,bytes,bytes32,uint256,uint256,uint256,bytes,bytes)[],address)": {
        "params": {
          "beneficiary": "- The address to receive the fees.",
          "ops": "- The operations to execute."
        }
      },
      "innerHandleOp(bytes,((address,uint256,uint256,uint256,uint256,uint256,uint256,address,uint256,uint256),bytes32,uint256,uint256,uint256),bytes)": {
        "params": {
          "callData": "- The callData to execute.",
          "context": "- The context bytes.",
          "opInfo": "- The UserOpInfo struct."
        }
      },
      "supportsInterface(bytes4)": {
        "details": "Returns true if this contract implements the interface defined by `interfaceId`. See the corresponding https://eips.ethereum.org/EIPS/eip-165#how-interfaces-are-identified[EIP section] to learn more about how these ids are created. This function call must use less than 30 000 gas."
      },
      "withdrawStake(address)": {
        "params": {
          "withdrawAddress": "- The address to send withdrawn value."
        }
      },
      "withdrawTo(address,uint256)": {
        "params": {
          "withdrawAddress": "- The address to send withdrawn value.",
          "withdrawAmount": "- The amount to withdraw."
        }
      }
    },
    "version": 1
  },
  "userdoc": {
    "errors": {
      "FailedOp(uint256,string)": [
        {
          "notice": "A custom revert error of handleOps, to identify the offending op. Should be caught in off-chain handleOps simulation and not happen on-chain. Useful for mitigating DoS attempts against batchers or for troubleshooting of factory/account/paymaster reverts. NOTE: If simulateValidation passes successfully, there should be no reason for handleOps to fail on it."
        }
      ],
      "FailedOpWithRevert(uint256,string,bytes)": [
        {
          "notice": "A custom revert error of handleOps, to report a revert by account or paymaster."
        }
      ],
      "SignatureValidationFailed(address)": [
        {
          "notice": "Error case when a signature aggregator fails to verify the aggregated signature it had created."
        }
      ]
    },
    "events": {
      "AccountDeployed(bytes32,address,address,address)": {
        "notice": "Account \"sender\" was deployed."
      },
      "BeforeExecution()": {
        "notice": "An event emitted by handleOps(), before starting the execution loop. Any event emitted before this event, is part of the validation."
      },
      "PostOpRevertReason(bytes32,address,uint256,bytes)": {
        "notice": "An event emitted if the UserOperation Paymaster's \"postOp\" call reverted with non-zero length."
      },
      "SignatureAggregatorChanged(address)": {
        "notice": "Signature aggregator used by the following UserOperationEvents within this bundle."
      },
      "UserOperationRevertReason(bytes32,address,uint256,bytes)": {
        "notice": "An event emitted if the UserOperation \"callData\" reverted with non-zero length."
      }
    },
    "kind": "user",
    "methods": {
      "SIG_VALIDATION_FAILED()": {
        "notice": "For simulation purposes, validateUserOp (and validatePaymasterUserOp) must return this value in case of signature failure, instead of revert."
      },
      "addStake(uint32)": {
        "notice": "Add to the account's stake - amount and delay any pending unstake is first cancelled."
      },
      "balanceOf(address)": {
        "notice": "Return the deposit (for gas payment) of the account."
      },
      "delegateAndRevert(address,bytes)": {
        "notice": "Helper method for dry-run testing."
      },
      "depositTo(address)": {
        "notice": "Add to the deposit of the given account."
      },
      "deposits(address)": {
        "notice": "maps paymaster to their deposits and stakes"
      },
      "getDepositInfo(address)": {
        "notice": "Get deposit info."
      },
      "getNonce(address,uint192)": {
        "notice": "Return the next nonce for this sender. Within a given key, the nonce values are sequenced (starting with zero, and incremented by one on each userop) But UserOp with different keys can come with arbitrary order."
      },
      "getSenderAddress(bytes)": {
        "notice": "Get counterfactual sender address. Calculate the sender contract address that will be generated by the initCode and salt in the UserOperation. This method always revert, and returns the address in SenderAddressResult error"
      },
      "getUserOpHash((address,uint256,bytes,bytes,bytes32,uint256,uint256,uint256,bytes,bytes))": {
        "notice": "Generate a request Id - unique identifier for this request. The request ID is a hash over the content of the userOp (except the signature), the entrypoint and the chainid."
      },
      "handleAggregatedOps(((address,uint256,bytes,bytes,bytes32,uint256,uint256,uint256,bytes,bytes)[],address,bytes)[],address)": {
        "notice": "Execute a batch of UserOperation with Aggregators"
      },
      "handleOps((address,uint256,bytes,bytes,bytes32,uint256,uint256,uint256,bytes,bytes)[],address)": {
        "notice": "Execute a batch of UserOperations. No signature aggregator is used. If any account requires an aggregator (that is, it returned an aggregator when performing simulateValidation), then handleAggregatedOps() must be used instead."
      },
      "incrementNonce(uint192)": {
        "notice": "Manually increment the nonce of the sender. This method is exposed just for completeness.. Account does NOT need to call it, neither during validation, nor elsewhere, as the EntryPoint will update the nonce regardless. Possible use-case is call it with various keys to \"initialize\" their nonces to one, so that future UserOperations will not pay extra for the first transaction with a given key."
      },
      "innerHandleOp(bytes,((address,uint256,uint256,uint256,uint256,uint256,uint256,address,uint256,uint256),bytes32,uint256,uint256,uint256),bytes)": {
        "notice": "Inner function to handle a UserOperation. Must be declared \"external\" to open a call context, but it can only be called by handleOps."
      },
      "nonceSequenceNumber(address,uint192)": {
        "notice": "The next valid sequence number for a given nonce key."
      },
      "unlockStake()": {
        "notice": "Attempt to unlock the stake. The value can be withdrawn (using withdrawStake) after the unstake delay."
      },
      "withdrawStake(address)": {
        "notice": "Withdraw from the (unlocked) stake. Must first call unlockStake and wait for the unstakeDelay to pass."
      },
      "withdrawTo(address,uint256)": {
        "notice": "Withdraw from the deposit."
      }
    },
    "version": 1
  },
  "storageLayout": {
    "storage": [
      {
        "astId": 8427,
        "contract": "contracts/core/EntryPoint.sol:EntryPoint",
        "label": "deposits",
        "offset": 0,
        "slot": "0",
        "type": "t_mapping(t_address,t_struct(DepositInfo)9467_storage)"
      },
      {
        "astId": 8291,
        "contract": "contracts/core/EntryPoint.sol:EntryPoint",
        "label": "nonceSequenceNumber",
        "offset": 0,
        "slot": "1",
        "type": "t_mapping(t_address,t_mapping(t_uint192,t_uint256))"
      },
      {
        "astId": 2528,
        "contract": "contracts/core/EntryPoint.sol:EntryPoint",
        "label": "_status",
        "offset": 0,
        "slot": "2",
        "type": "t_uint256"
      }
    ],
    "types": {
      "t_address": {
        "encoding": "inplace",
        "label": "address",
        "numberOfBytes": "20"
      },
      "t_bool": {
        "encoding": "inplace",
        "label": "bool",
        "numberOfBytes": "1"
      },
      "t_mapping(t_address,t_mapping(t_uint192,t_uint256))": {
        "encoding": "mapping",
        "key": "t_address",
        "label": "mapping(address => mapping(uint192 => uint256))",
        "numberOfBytes": "32",
        "value": "t_mapping(t_uint192,t_uint256)"
      },
      "t_mapping(t_address,t_struct(DepositInfo)9467_storage)": {
        "encoding": "mapping",
        "key": "t_address",
        "label": "mapping(address => struct IStakeManager.DepositInfo)",
        "numberOfBytes": "32",
        "value": "t_struct(DepositInfo)9467_storage"
      },
      "t_mapping(t_uint192,t_uint256)": {
        "encoding": "mapping",
        "key": "t_uint192",
        "label": "mapping(uint192 => uint256)",
        "numberOfBytes": "32",
        "value": "t_uint256"
      },
      "t_struct(DepositInfo)9467_storage": {
        "encoding": "inplace",
        "label": "struct IStakeManager.DepositInfo",
        "members": [
          {
            "astId": 9458,
            "contract": "contracts/core/EntryPoint.sol:EntryPoint",
            "label": "deposit",
            "offset": 0,
            "slot": "0",
            "type": "t_uint256"
          },
          {
            "astId": 9460,
            "contract": "contracts/core/EntryPoint.sol:EntryPoint",
            "label": "staked",
            "offset": 0,
            "slot": "1",
            "type": "t_bool"
          },
          {
            "astId": 9462,
            "contract": "contracts/core/EntryPoint.sol:EntryPoint",
            "label": "stake",
            "offset": 1,
            "slot": "1",
            "type": "t_uint112"
          },
          {
            "astId": 9464,
            "contract": "contracts/core/EntryPoint.sol:EntryPoint",
            "label": "unstakeDelaySec",
            "offset": 15,
            "slot": "1",
            "type": "t_uint32"
          },
          {
            "astId": 9466,
            "contract": "contracts/core/EntryPoint.sol:EntryPoint",
            "label": "withdrawTime",
            "offset": 19,
            "slot": "1",
            "type": "t_uint48"
          }
        ],
        "numberOfBytes": "64"
      },
      "t_uint112": {
        "encoding": "inplace",
        "label": "uint112",
        "numberOfBytes": "14"
      },
      "t_uint192": {
        "encoding": "inplace",
        "label": "uint192",
        "numberOfBytes": "24"
      },
      "t_uint256": {
        "encoding": "inplace",
        "label": "uint256",
        "numberOfBytes": "32"
      },
      "t_uint32": {
        "encoding": "inplace",
        "label": "uint32",
        "numberOfBytes": "4"
      },
      "t_uint48": {
        "encoding": "inplace",
        "label": "uint48",
        "numberOfBytes": "6"
      }
    }
  }
}